{
  "contractName": "MyERC721",
  "abi": [
    {
      "inputs": [
        {
          "internalType": "string",
          "name": "_tokenName",
          "type": "string"
        },
        {
          "internalType": "string",
          "name": "_symbol",
          "type": "string"
        }
      ],
      "stateMutability": "nonpayable",
      "type": "constructor"
    },
    {
      "anonymous": false,
      "inputs": [
        {
          "indexed": true,
          "internalType": "address",
          "name": "owner",
          "type": "address"
        },
        {
          "indexed": true,
          "internalType": "address",
          "name": "approved",
          "type": "address"
        },
        {
          "indexed": true,
          "internalType": "uint256",
          "name": "tokenId",
          "type": "uint256"
        }
      ],
      "name": "Approval",
      "type": "event"
    },
    {
      "anonymous": false,
      "inputs": [
        {
          "indexed": true,
          "internalType": "address",
          "name": "owner",
          "type": "address"
        },
        {
          "indexed": true,
          "internalType": "address",
          "name": "operator",
          "type": "address"
        },
        {
          "indexed": false,
          "internalType": "bool",
          "name": "approved",
          "type": "bool"
        }
      ],
      "name": "ApprovalForAll",
      "type": "event"
    },
    {
      "anonymous": false,
      "inputs": [
        {
          "indexed": true,
          "internalType": "address",
          "name": "owner",
          "type": "address"
        },
        {
          "indexed": true,
          "internalType": "address",
          "name": "operator",
          "type": "address"
        },
        {
          "indexed": false,
          "internalType": "bool",
          "name": "approveStatus",
          "type": "bool"
        }
      ],
      "name": "LogApprovalForAll",
      "type": "event"
    },
    {
      "anonymous": false,
      "inputs": [
        {
          "indexed": true,
          "internalType": "address",
          "name": "oldOwner",
          "type": "address"
        },
        {
          "indexed": true,
          "internalType": "address",
          "name": "newOwner",
          "type": "address"
        }
      ],
      "name": "LogOwnershipTransferred",
      "type": "event"
    },
    {
      "anonymous": false,
      "inputs": [
        {
          "indexed": false,
          "internalType": "address",
          "name": "owner",
          "type": "address"
        },
        {
          "indexed": false,
          "internalType": "bool",
          "name": "status",
          "type": "bool"
        }
      ],
      "name": "LogPaused",
      "type": "event"
    },
    {
      "anonymous": false,
      "inputs": [
        {
          "indexed": true,
          "internalType": "address",
          "name": "from",
          "type": "address"
        },
        {
          "indexed": true,
          "internalType": "address",
          "name": "to",
          "type": "address"
        },
        {
          "indexed": false,
          "internalType": "uint256",
          "name": "tokenId",
          "type": "uint256"
        }
      ],
      "name": "LogTransfer",
      "type": "event"
    },
    {
      "anonymous": false,
      "inputs": [
        {
          "indexed": false,
          "internalType": "address",
          "name": "owner",
          "type": "address"
        },
        {
          "indexed": false,
          "internalType": "bool",
          "name": "status",
          "type": "bool"
        }
      ],
      "name": "LogUnpaused",
      "type": "event"
    },
    {
      "anonymous": false,
      "inputs": [
        {
          "indexed": true,
          "internalType": "address",
          "name": "from",
          "type": "address"
        },
        {
          "indexed": true,
          "internalType": "address",
          "name": "to",
          "type": "address"
        },
        {
          "indexed": true,
          "internalType": "uint256",
          "name": "tokenId",
          "type": "uint256"
        }
      ],
      "name": "Transfer",
      "type": "event"
    },
    {
      "inputs": [
        {
          "internalType": "address",
          "name": "owner",
          "type": "address"
        }
      ],
      "name": "balanceOf",
      "outputs": [
        {
          "internalType": "uint256",
          "name": "",
          "type": "uint256"
        }
      ],
      "stateMutability": "view",
      "type": "function"
    },
    {
      "inputs": [],
      "name": "getOwner",
      "outputs": [
        {
          "internalType": "address",
          "name": "",
          "type": "address"
        }
      ],
      "stateMutability": "view",
      "type": "function"
    },
    {
      "inputs": [],
      "name": "name",
      "outputs": [
        {
          "internalType": "string",
          "name": "",
          "type": "string"
        }
      ],
      "stateMutability": "view",
      "type": "function"
    },
    {
      "inputs": [],
      "name": "onlyOwner",
      "outputs": [],
      "stateMutability": "view",
      "type": "function"
    },
    {
      "inputs": [
        {
          "internalType": "uint256",
          "name": "tokenId",
          "type": "uint256"
        }
      ],
      "name": "ownerOf",
      "outputs": [
        {
          "internalType": "address",
          "name": "",
          "type": "address"
        }
      ],
      "stateMutability": "view",
      "type": "function"
    },
    {
      "inputs": [],
      "name": "pauseContract",
      "outputs": [],
      "stateMutability": "nonpayable",
      "type": "function"
    },
    {
      "inputs": [],
      "name": "paused",
      "outputs": [],
      "stateMutability": "view",
      "type": "function"
    },
    {
      "inputs": [
        {
          "internalType": "address",
          "name": "from",
          "type": "address"
        },
        {
          "internalType": "address",
          "name": "to",
          "type": "address"
        },
        {
          "internalType": "uint256",
          "name": "tokenId",
          "type": "uint256"
        }
      ],
      "name": "safeTransferFrom",
      "outputs": [],
      "stateMutability": "nonpayable",
      "type": "function"
    },
    {
      "inputs": [
        {
          "internalType": "address",
          "name": "from",
          "type": "address"
        },
        {
          "internalType": "address",
          "name": "to",
          "type": "address"
        },
        {
          "internalType": "uint256",
          "name": "tokenId",
          "type": "uint256"
        },
        {
          "internalType": "bytes",
          "name": "_data",
          "type": "bytes"
        }
      ],
      "name": "safeTransferFrom",
      "outputs": [],
      "stateMutability": "nonpayable",
      "type": "function"
    },
    {
      "inputs": [
        {
          "internalType": "bytes4",
          "name": "interfaceId",
          "type": "bytes4"
        }
      ],
      "name": "supportsInterface",
      "outputs": [
        {
          "internalType": "bool",
          "name": "",
          "type": "bool"
        }
      ],
      "stateMutability": "view",
      "type": "function"
    },
    {
      "inputs": [],
      "name": "symbol",
      "outputs": [
        {
          "internalType": "string",
          "name": "",
          "type": "string"
        }
      ],
      "stateMutability": "view",
      "type": "function"
    },
    {
      "inputs": [
        {
          "internalType": "uint256",
          "name": "tokenId",
          "type": "uint256"
        }
      ],
      "name": "tokenURI",
      "outputs": [
        {
          "internalType": "string",
          "name": "",
          "type": "string"
        }
      ],
      "stateMutability": "view",
      "type": "function"
    },
    {
      "inputs": [
        {
          "internalType": "address",
          "name": "from",
          "type": "address"
        },
        {
          "internalType": "address",
          "name": "to",
          "type": "address"
        },
        {
          "internalType": "uint256",
          "name": "tokenId",
          "type": "uint256"
        }
      ],
      "name": "transferFrom",
      "outputs": [],
      "stateMutability": "nonpayable",
      "type": "function"
    },
    {
      "inputs": [
        {
          "internalType": "address",
          "name": "_account",
          "type": "address"
        }
      ],
      "name": "transferOwnership",
      "outputs": [],
      "stateMutability": "nonpayable",
      "type": "function"
    },
    {
      "inputs": [],
      "name": "unpauseContract",
      "outputs": [],
      "stateMutability": "nonpayable",
      "type": "function"
    },
    {
      "inputs": [],
      "name": "whenNotPaused",
      "outputs": [],
      "stateMutability": "view",
      "type": "function"
    },
    {
      "inputs": [
        {
          "internalType": "address",
          "name": "_to",
          "type": "address"
        },
        {
          "internalType": "uint256",
          "name": "_tokenId",
          "type": "uint256"
        }
      ],
      "name": "approve",
      "outputs": [],
      "stateMutability": "nonpayable",
      "type": "function"
    },
    {
      "inputs": [
        {
          "internalType": "uint256",
          "name": "_tokenId",
          "type": "uint256"
        }
      ],
      "name": "getApproved",
      "outputs": [
        {
          "internalType": "address",
          "name": "",
          "type": "address"
        }
      ],
      "stateMutability": "view",
      "type": "function"
    },
    {
      "inputs": [
        {
          "internalType": "address",
          "name": "_to",
          "type": "address"
        },
        {
          "internalType": "bool",
          "name": "_approved",
          "type": "bool"
        }
      ],
      "name": "setApprovalForAll",
      "outputs": [],
      "stateMutability": "nonpayable",
      "type": "function"
    },
    {
      "inputs": [
        {
          "internalType": "address",
          "name": "_owner",
          "type": "address"
        },
        {
          "internalType": "address",
          "name": "_operator",
          "type": "address"
        }
      ],
      "name": "isApprovedForAll",
      "outputs": [
        {
          "internalType": "bool",
          "name": "",
          "type": "bool"
        }
      ],
      "stateMutability": "view",
      "type": "function"
    },
    {
      "inputs": [],
      "name": "getTotalSupply",
      "outputs": [
        {
          "internalType": "uint256",
          "name": "",
          "type": "uint256"
        }
      ],
      "stateMutability": "view",
      "type": "function"
    }
  ],
  "bytecode": "0x60806040523480156200001157600080fd5b506040516200178038038062001780833981016040819052620000349162000203565b60008054336001600160a01b031991821681179092556001805490911690911790558151829082906200006f90600290602085019062000090565b5080516200008590600390602084019062000090565b5050505050620002aa565b8280546200009e906200026d565b90600052602060002090601f016020900481019282620000c257600085556200010d565b82601f10620000dd57805160ff19168380011785556200010d565b828001600101855582156200010d579182015b828111156200010d578251825591602001919060010190620000f0565b506200011b9291506200011f565b5090565b5b808211156200011b576000815560010162000120565b634e487b7160e01b600052604160045260246000fd5b600082601f8301126200015e57600080fd5b81516001600160401b03808211156200017b576200017b62000136565b604051601f8301601f19908116603f01168101908282118183101715620001a657620001a662000136565b81604052838152602092508683858801011115620001c357600080fd5b600091505b83821015620001e75785820183015181830184015290820190620001c8565b83821115620001f95760008385830101525b9695505050505050565b600080604083850312156200021757600080fd5b82516001600160401b03808211156200022f57600080fd5b6200023d868387016200014c565b935060208501519150808211156200025457600080fd5b5062000263858286016200014c565b9150509250929050565b600181811c908216806200028257607f821691505b60208210811415620002a457634e487b7160e01b600052602260045260246000fd5b50919050565b6114c680620002ba6000396000f3fe608060405234801561001057600080fd5b50600436106101375760003560e01c80636352211e116100b8578063b33712c51161007c578063b33712c514610275578063b88d4fde1461027d578063c4e41b2214610290578063c87b56dd14610298578063e985e9c5146102ab578063f2fde38b146102be57600080fd5b80636352211e1461021557806370a0823114610228578063893d20e81461024957806395d89b411461025a578063a22cb4651461026257600080fd5b806323b872dd116100ff57806323b872dd146101d757806342842e0e146101ea578063439766ce146101fd5780635c2dc4f0146102055780635c975abb1461020d57600080fd5b806301ffc9a71461013c57806306fdde0314610164578063081812fc14610179578063095ea7b3146101ba5780631036e0a8146101cf575b600080fd5b61014f61014a366004610fd6565b6102d1565b60405190151581526020015b60405180910390f35b61016c610323565b60405161015b919061104b565b6101a261018736600461105e565b6000908152600a60205260409020546001600160a01b031690565b6040516001600160a01b03909116815260200161015b565b6101cd6101c8366004611093565b6103b5565b005b6101cd6104dd565b6101cd6101e53660046110bd565b61052c565b6101cd6101f83660046110bd565b610562565b6101cd61057d565b6101cd61062f565b6101cd61067e565b6101a261022336600461105e565b6106c8565b61023b6102363660046110f9565b61073f565b60405190815260200161015b565b6000546001600160a01b03166101a2565b61016c6107c6565b6101cd610270366004611114565b6107d5565b6101cd610857565b6101cd61028b366004611166565b610905565b61023b61093d565b61016c6102a636600461105e565b61094d565b61014f6102b9366004611242565b610a35565b6101cd6102cc3660046110f9565b610a63565b60006001600160e01b031982166380ac58cd60e01b148061030257506001600160e01b03198216635b5e139f60e01b145b8061031d57506301ffc9a760e01b6001600160e01b03198316145b92915050565b60606002805461033290611275565b80601f016020809104026020016040519081016040528092919081815260200182805461035e90611275565b80156103ab5780601f10610380576101008083540402835291602001916103ab565b820191906000526020600020905b81548152906001019060200180831161038e57829003601f168201915b5050505050905090565b6000818152600960205260409020546001600160a01b03838116911614156104245760405162461bcd60e51b815260206004820152601c60248201527f6d757374206e6f7420626520617070726f76656420616464726573730000000060448201526064015b60405180910390fd5b6001546001600160a01b031633148061044257506104423383610a35565b6104845760405162461bcd60e51b815260206004820152601360248201527218d85b1b195c881b9bdd08185c1c1c9bdd9959606a1b604482015260640161041b565b6000818152600a602052604080822080546001600160a01b0319166001600160a01b0386169081179091559051839233917f8c5be1e5ebec7d5bd14f71427d1e84f3dd0314c0f7b2291e5b200ac8c7c3b9259190a45050565b6000546001600160a01b0316331461052a5760405162461bcd60e51b815260206004820152601060248201526f31b0b63632b9103737ba1037bbb732b960811b604482015260640161041b565b565b6105363382610aa9565b6105525760405162461bcd60e51b815260040161041b906112b0565b61055d838383610b80565b505050565b61055d83838360405180602001604052806000815250610905565b6105856104dd565b600054600160a01b900460ff16156105d55760405162461bcd60e51b81526020600482015260136024820152726e6f7420696e2070617573656420737461746560681b604482015260640161041b565b6000805460ff60a01b1916600160a01b90811791829055604080513381529190920460ff16151560208201527f9885b484a3068de5c38fb9073ed8489371efc9514b9a174a9cd1df5326d2e45491015b60405180910390a1565b600054600160a01b900460ff161561052a5760405162461bcd60e51b81526020600482015260126024820152711b5d5cdd081b9bdd081899481c185d5cd95960721b604482015260640161041b565b600054600160a01b900460ff1661052a5760405162461bcd60e51b815260206004820152600e60248201526d1b5d5cdd081899481c185d5cd95960921b604482015260640161041b565b6000818152600460205260408120546001600160a01b03168061031d5760405162461bcd60e51b815260206004820152602960248201527f4552433732313a206f776e657220717565727920666f72206e6f6e657869737460448201526832b73a103a37b5b2b760b91b606482015260840161041b565b60006001600160a01b0382166107aa5760405162461bcd60e51b815260206004820152602a60248201527f4552433732313a2062616c616e636520717565727920666f7220746865207a65604482015269726f206164647265737360b01b606482015260840161041b565b506001600160a01b031660009081526005602052604090205490565b60606003805461033290611275565b6001600160a01b0382163314156107eb57600080fd5b336000818152600b602090815260408083206001600160a01b03871680855290835292819020805460ff191686151590811790915590519081529192917f17307eab39ab6107e8899845ad3d59bd9653f200f220920489ca2b5937696c31910160405180910390a35050565b61085f6104dd565b600054600160a01b900460ff1615156001146108b55760405162461bcd60e51b81526020600482015260156024820152746e6f7420696e20756e70617573656420737461746560581b604482015260640161041b565b6000805460ff60a01b19169081905560408051338152600160a01b90920460ff16151560208301527fd0c0d0bdd7ffcf7b8e5922aa102f0dfc3e6cd7378f774bd623a7348b13c862899101610625565b61090f3383610aa9565b61092b5760405162461bcd60e51b815260040161041b906112b0565b61093784848484610d20565b50505050565b600061094860085490565b905090565b6000818152600460205260409020546060906001600160a01b03166109cc5760405162461bcd60e51b815260206004820152602f60248201527f4552433732314d657461646174613a2055524920717565727920666f72206e6f60448201526e3732bc34b9ba32b73a103a37b5b2b760891b606482015260840161041b565b60006109e360408051602081019091526000815290565b90506000815111610a035760405180602001604052806000815250610a2e565b80610a0d84610d53565b604051602001610a1e929190611301565b6040516020818303038152906040525b9392505050565b6001600160a01b039182166000908152600b6020908152604080832093909416825291909152205460ff1690565b610a6b6104dd565b50600080546040516001600160a01b0390911691829133917fdb6d05f3295cede580affa301a1eb5297528f3b3f6a56b075887ce6f61c45f2191a350565b6000818152600460205260408120546001600160a01b0316610b225760405162461bcd60e51b815260206004820152602c60248201527f4552433732313a206f70657261746f7220717565727920666f72206e6f6e657860448201526b34b9ba32b73a103a37b5b2b760a11b606482015260840161041b565b6000610b2d836106c8565b9050806001600160a01b0316846001600160a01b03161480610b6857506000838152600a60205260409020546001600160a01b038581169116145b80610b785750610b788185610a35565b949350505050565b826001600160a01b0316610b93826106c8565b6001600160a01b031614610bfb5760405162461bcd60e51b815260206004820152602960248201527f4552433732313a207472616e73666572206f6620746f6b656e2074686174206960448201526839903737ba1037bbb760b91b606482015260840161041b565b6001600160a01b038216610c5d5760405162461bcd60e51b8152602060048201526024808201527f4552433732313a207472616e7366657220746f20746865207a65726f206164646044820152637265737360e01b606482015260840161041b565b610c68600082610e51565b6001600160a01b0383166000908152600560205260408120805460019290610c91908490611346565b90915550506001600160a01b0382166000908152600560205260408120805460019290610cbf90849061135d565b909155505060008181526004602052604080822080546001600160a01b0319166001600160a01b0386811691821790925591518493918716917fddf252ad1be2c89b69c2b068fc378daa952ba7f163c4a11628f55a4df523b3ef91a4505050565b610d2b848484610b80565b610d3784848484610ebf565b6109375760405162461bcd60e51b815260040161041b90611375565b606081610d775750506040805180820190915260018152600360fc1b602082015290565b8160005b8115610da15780610d8b816113c7565b9150610d9a9050600a836113f8565b9150610d7b565b60008167ffffffffffffffff811115610dbc57610dbc611150565b6040519080825280601f01601f191660200182016040528015610de6576020820181803683370190505b5090505b8415610b7857610dfb600183611346565b9150610e08600a8661140c565b610e1390603061135d565b60f81b818381518110610e2857610e28611420565b60200101906001600160f81b031916908160001a905350610e4a600a866113f8565b9450610dea565b600081815260066020526040902080546001600160a01b0319166001600160a01b0384169081179091558190610e86826106c8565b6001600160a01b03167f8c5be1e5ebec7d5bd14f71427d1e84f3dd0314c0f7b2291e5b200ac8c7c3b92560405160405180910390a45050565b60006001600160a01b0384163b15610fb257604051630a85bd0160e11b81526001600160a01b0385169063150b7a0290610f03903390899088908890600401611436565b6020604051808303816000875af1925050508015610f3e575060408051601f3d908101601f19168201909252610f3b91810190611473565b60015b610f98573d808015610f6c576040519150601f19603f3d011682016040523d82523d6000602084013e610f71565b606091505b508051610f905760405162461bcd60e51b815260040161041b90611375565b805181602001fd5b6001600160e01b031916630a85bd0160e11b149050610b78565b506001949350505050565b6001600160e01b031981168114610fd357600080fd5b50565b600060208284031215610fe857600080fd5b8135610a2e81610fbd565b60005b8381101561100e578181015183820152602001610ff6565b838111156109375750506000910152565b60008151808452611037816020860160208601610ff3565b601f01601f19169290920160200192915050565b602081526000610a2e602083018461101f565b60006020828403121561107057600080fd5b5035919050565b80356001600160a01b038116811461108e57600080fd5b919050565b600080604083850312156110a657600080fd5b6110af83611077565b946020939093013593505050565b6000806000606084860312156110d257600080fd5b6110db84611077565b92506110e960208501611077565b9150604084013590509250925092565b60006020828403121561110b57600080fd5b610a2e82611077565b6000806040838503121561112757600080fd5b61113083611077565b91506020830135801515811461114557600080fd5b809150509250929050565b634e487b7160e01b600052604160045260246000fd5b6000806000806080858703121561117c57600080fd5b61118585611077565b935061119360208601611077565b925060408501359150606085013567ffffffffffffffff808211156111b757600080fd5b818701915087601f8301126111cb57600080fd5b8135818111156111dd576111dd611150565b604051601f8201601f19908116603f0116810190838211818310171561120557611205611150565b816040528281528a602084870101111561121e57600080fd5b82602086016020830137600060208483010152809550505050505092959194509250565b6000806040838503121561125557600080fd5b61125e83611077565b915061126c60208401611077565b90509250929050565b600181811c9082168061128957607f821691505b602082108114156112aa57634e487b7160e01b600052602260045260246000fd5b50919050565b60208082526031908201527f4552433732313a207472616e736665722063616c6c6572206973206e6f74206f6040820152701ddb995c881b9bdc88185c1c1c9bdd9959607a1b606082015260800190565b60008351611313818460208801610ff3565b835190830190611327818360208801610ff3565b01949350505050565b634e487b7160e01b600052601160045260246000fd5b60008282101561135857611358611330565b500390565b6000821982111561137057611370611330565b500190565b60208082526032908201527f4552433732313a207472616e7366657220746f206e6f6e20455243373231526560408201527131b2b4bb32b91034b6b83632b6b2b73a32b960711b606082015260800190565b60006000198214156113db576113db611330565b5060010190565b634e487b7160e01b600052601260045260246000fd5b600082611407576114076113e2565b500490565b60008261141b5761141b6113e2565b500690565b634e487b7160e01b600052603260045260246000fd5b6001600160a01b03858116825284166020820152604081018390526080606082018190526000906114699083018461101f565b9695505050505050565b60006020828403121561148557600080fd5b8151610a2e81610fbd56fea2646970667358221220e755bd507b0342586c0ca99b77b0bd6a61058ec83c20a40655ec83e6dc77281964736f6c634300080a0033",
  "immutableReferences": {},
  "source": "// SPDX-License-Identifier: MIT\n\npragma solidity >=0.5.0 <0.9.0;\n\nimport '@openzeppelin/contracts/token/ERC721/ERC721.sol';\nimport '@openzeppelin/contracts/utils/math/SafeMath.sol';\nimport '@openzeppelin/contracts/utils/Counters.sol';\nimport './Pausable.sol';\n\n\ncontract MyERC721 is  Pausable, ERC721 {  \n    \n\t/********************************************************************************************/\n\t/*                                     STATE VARIABLES                                          */\n\t/******************************************************************************************/\n\t// Equals to `bytes4(keccak256(\"onERC721Received(address,address,uint256,bytes)\"))`\n\t// which can be also obtained as `IERC721Receiver(0).onERC721Received.selector`\n\tusing Counters for Counters.Counter;\n\tCounters.Counter private _tokenIds; \n\tbytes4 private constant _ERC721_RECEIVED = 0x150b7a02;\n\t\n\tmapping(uint256 => address) private _tokenOwner; \n\t\n    // mapping token id to approved address\n\tmapping(uint256 => address) private _tokenApprovals;\n\t\n\t// mapping from owner to operator approval\n\tmapping(address => mapping(address => bool)) private _operatorApprovals;\n\t\n\n\n\t/********************************************************************************************/\n\t/*                                      EVENTS                                  */\n\t/******************************************************************************************/\n\tevent LogApprovalForAll(address indexed owner, address indexed operator, bool approveStatus);\n\tevent LogTransfer(address indexed from, address indexed to, uint256 tokenId);\n// \tevent LogTokenMinted(address indexed minter, uint256 tokenId);\n\n\tconstructor(string memory _tokenName, string memory _symbol) ERC721(_tokenName, _symbol) {\n\n\t}\n\n\t/**\n\t\t* @dev approve another address to transfer the given tokenId\n\t*/\n\n\tfunction approve(address _to, uint256 _tokenId) public  override  {\n\t\trequire(_tokenOwner[_tokenId] != _to, 'must not be approved address');\n\t\trequire(msg.sender == contractOwner || isApprovedForAll(msg.sender, _to), 'caller not approved');\n\t\t_tokenApprovals[_tokenId] = _to;\n\t\temit Approval(msg.sender, _to, _tokenId);\n\n\t}\n\n\tfunction getApproved(uint256 _tokenId) public view override returns(address) {\n\t\treturn _tokenApprovals[_tokenId];\n\t}\n\n\t/**\n\t\t* @dev Sets or unsets the approval of a given operator\n\t\t* An operator is allowed to transfer all tokens of the sender on their behalf\n\t\t* @param _to operator address to set the approval\n\t*/\n\t\n\t// function setApprovalForAll(address _to, bool _approveStatus) public  override {\n\t//   setApprovalForAll(_to, _approveStatus);\n\n\t    \n\t// }\n\n\t function setApprovalForAll(address _to, bool _approved) public override {\n\t\t{ require(_to != msg.sender);\n\t\t_operatorApprovals[msg.sender][_to] = _approved;\n\t\temit ApprovalForAll(msg.sender, _to, _approved);}\n    }\n\n\t\n\t/**\n    * @dev Tells whether an operator is approved by a given owner\n     * @param _owner owner address which you want to query the approval of\n     * @param _operator operator address which you want to query the approval of\n     * @return bool whether the given operator is approved by the given owner\n  */\n\t\n\tfunction isApprovedForAll(address _owner, address _operator) public view override returns(bool)  {\n\t  return _operatorApprovals[_owner][_operator];\n\t}\n\n\n\tfunction mintToken(address _to) internal {\n\t\trequire(_to != address(0), 'cannot be zero address');\n\t\tuint256 id = _tokenIds.current();\n\t\t_tokenIds.increment();\n\t\t_safeMint(_to, id);\n\t\temit LogTransfer(address(0), _to, id);\n\t}\n\t\n\t// @dev Internal function to transfer ownership of a given token ID to another address.\n\t// TIP: remember the functions to use for Counters. you can refresh yourself with the link above\n\tfunction _transferFrom(address _from, address _to, uint256 _tokenId) internal {\n\t\trequire(_from == _tokenOwner[_tokenId], 'caller not owner');\n\t\trequire(_to != address(0), 'not a valid address');\n\t\t_clearApproval(_tokenId);\n\n\t\ttransferFrom(_from, _to, _tokenId);\n\t\temit Transfer(_from, _to, _tokenId);\n\t}\n\t// @dev private function clear approval \n\t// @param _tokenId whose approval is to be removed\n\tfunction _clearApproval(uint256 _tokenId) private {\n\t\tif(_tokenApprovals[_tokenId] != address(0)) {\n\t\t\t_tokenApprovals[_tokenId] = address(0);\n\t\t}\n\t}\n\n\tfunction getTotalSupply() public view returns(uint256) {\n\t\treturn _tokenIds.current();\n\t}\n\n\n\n\n}",
  "sourcePath": "/Users/dav/Desktop/capstone-final/real-estate-marketplace/contracts/MyERC721.sol",
  "compiler": {
    "name": "solc",
    "version": "0.8.10+commit.fc410830.Emscripten.clang"
  },
  "schemaVersion": "3.4.3",
  "updatedAt": "2021-12-20T09:54:02.152Z",
  "devdoc": {
    "kind": "dev",
    "methods": {
      "approve(address,uint256)": {
        "details": "approve another address to transfer the given tokenId"
      },
      "balanceOf(address)": {
        "details": "See {IERC721-balanceOf}."
      },
      "isApprovedForAll(address,address)": {
        "details": "Tells whether an operator is approved by a given owner",
        "params": {
          "_operator": "operator address which you want to query the approval of",
          "_owner": "owner address which you want to query the approval of"
        },
        "returns": {
          "_0": "bool whether the given operator is approved by the given owner"
        }
      },
      "name()": {
        "details": "See {IERC721Metadata-name}."
      },
      "ownerOf(uint256)": {
        "details": "See {IERC721-ownerOf}."
      },
      "safeTransferFrom(address,address,uint256)": {
        "details": "See {IERC721-safeTransferFrom}."
      },
      "safeTransferFrom(address,address,uint256,bytes)": {
        "details": "See {IERC721-safeTransferFrom}."
      },
      "setApprovalForAll(address,bool)": {
        "details": "Sets or unsets the approval of a given operator An operator is allowed to transfer all tokens of the sender on their behalf",
        "params": {
          "_to": "operator address to set the approval"
        }
      },
      "supportsInterface(bytes4)": {
        "details": "See {IERC165-supportsInterface}."
      },
      "symbol()": {
        "details": "See {IERC721Metadata-symbol}."
      },
      "tokenURI(uint256)": {
        "details": "See {IERC721Metadata-tokenURI}."
      },
      "transferFrom(address,address,uint256)": {
        "details": "See {IERC721-transferFrom}."
      }
    },
    "version": 1
  },
  "userdoc": {
    "kind": "user",
    "methods": {},
    "version": 1
  }
}