{
  "contractName": "MyERC721Enumerable",
  "abi": [
    {
      "inputs": [
        {
          "internalType": "string",
          "name": "_tokenName",
          "type": "string"
        },
        {
          "internalType": "string",
          "name": "_symbol",
          "type": "string"
        }
      ],
      "stateMutability": "nonpayable",
      "type": "constructor"
    },
    {
      "anonymous": false,
      "inputs": [
        {
          "indexed": true,
          "internalType": "address",
          "name": "owner",
          "type": "address"
        },
        {
          "indexed": true,
          "internalType": "address",
          "name": "approved",
          "type": "address"
        },
        {
          "indexed": true,
          "internalType": "uint256",
          "name": "tokenId",
          "type": "uint256"
        }
      ],
      "name": "Approval",
      "type": "event"
    },
    {
      "anonymous": false,
      "inputs": [
        {
          "indexed": true,
          "internalType": "address",
          "name": "owner",
          "type": "address"
        },
        {
          "indexed": true,
          "internalType": "address",
          "name": "operator",
          "type": "address"
        },
        {
          "indexed": false,
          "internalType": "bool",
          "name": "approved",
          "type": "bool"
        }
      ],
      "name": "ApprovalForAll",
      "type": "event"
    },
    {
      "anonymous": false,
      "inputs": [
        {
          "indexed": true,
          "internalType": "address",
          "name": "owner",
          "type": "address"
        },
        {
          "indexed": true,
          "internalType": "address",
          "name": "operator",
          "type": "address"
        },
        {
          "indexed": false,
          "internalType": "bool",
          "name": "approveStatus",
          "type": "bool"
        }
      ],
      "name": "LogApprovalForAll",
      "type": "event"
    },
    {
      "anonymous": false,
      "inputs": [
        {
          "indexed": true,
          "internalType": "address",
          "name": "oldOwner",
          "type": "address"
        },
        {
          "indexed": true,
          "internalType": "address",
          "name": "newOwner",
          "type": "address"
        }
      ],
      "name": "LogOwnershipTransferred",
      "type": "event"
    },
    {
      "anonymous": false,
      "inputs": [
        {
          "indexed": false,
          "internalType": "address",
          "name": "owner",
          "type": "address"
        },
        {
          "indexed": false,
          "internalType": "bool",
          "name": "status",
          "type": "bool"
        }
      ],
      "name": "LogPaused",
      "type": "event"
    },
    {
      "anonymous": false,
      "inputs": [
        {
          "indexed": true,
          "internalType": "address",
          "name": "from",
          "type": "address"
        },
        {
          "indexed": true,
          "internalType": "address",
          "name": "to",
          "type": "address"
        },
        {
          "indexed": false,
          "internalType": "uint256",
          "name": "tokenId",
          "type": "uint256"
        }
      ],
      "name": "LogTransfer",
      "type": "event"
    },
    {
      "anonymous": false,
      "inputs": [
        {
          "indexed": false,
          "internalType": "address",
          "name": "owner",
          "type": "address"
        },
        {
          "indexed": false,
          "internalType": "bool",
          "name": "status",
          "type": "bool"
        }
      ],
      "name": "LogUnpaused",
      "type": "event"
    },
    {
      "anonymous": false,
      "inputs": [
        {
          "indexed": true,
          "internalType": "address",
          "name": "from",
          "type": "address"
        },
        {
          "indexed": true,
          "internalType": "address",
          "name": "to",
          "type": "address"
        },
        {
          "indexed": true,
          "internalType": "uint256",
          "name": "tokenId",
          "type": "uint256"
        }
      ],
      "name": "Transfer",
      "type": "event"
    },
    {
      "inputs": [
        {
          "internalType": "address",
          "name": "_to",
          "type": "address"
        },
        {
          "internalType": "uint256",
          "name": "_tokenId",
          "type": "uint256"
        }
      ],
      "name": "approve",
      "outputs": [],
      "stateMutability": "nonpayable",
      "type": "function"
    },
    {
      "inputs": [
        {
          "internalType": "address",
          "name": "owner",
          "type": "address"
        }
      ],
      "name": "balanceOf",
      "outputs": [
        {
          "internalType": "uint256",
          "name": "",
          "type": "uint256"
        }
      ],
      "stateMutability": "view",
      "type": "function"
    },
    {
      "inputs": [
        {
          "internalType": "bytes4",
          "name": "_interfaceId",
          "type": "bytes4"
        }
      ],
      "name": "checkSupportInterface",
      "outputs": [
        {
          "internalType": "bool",
          "name": "",
          "type": "bool"
        }
      ],
      "stateMutability": "view",
      "type": "function"
    },
    {
      "inputs": [
        {
          "internalType": "uint256",
          "name": "_tokenId",
          "type": "uint256"
        }
      ],
      "name": "getApproved",
      "outputs": [
        {
          "internalType": "address",
          "name": "",
          "type": "address"
        }
      ],
      "stateMutability": "view",
      "type": "function"
    },
    {
      "inputs": [],
      "name": "getOwner",
      "outputs": [
        {
          "internalType": "address",
          "name": "",
          "type": "address"
        }
      ],
      "stateMutability": "view",
      "type": "function"
    },
    {
      "inputs": [],
      "name": "getTotalSupply",
      "outputs": [
        {
          "internalType": "uint256",
          "name": "",
          "type": "uint256"
        }
      ],
      "stateMutability": "view",
      "type": "function"
    },
    {
      "inputs": [
        {
          "internalType": "address",
          "name": "_owner",
          "type": "address"
        },
        {
          "internalType": "address",
          "name": "_operator",
          "type": "address"
        }
      ],
      "name": "isApprovedForAll",
      "outputs": [
        {
          "internalType": "bool",
          "name": "",
          "type": "bool"
        }
      ],
      "stateMutability": "view",
      "type": "function"
    },
    {
      "inputs": [],
      "name": "name",
      "outputs": [
        {
          "internalType": "string",
          "name": "",
          "type": "string"
        }
      ],
      "stateMutability": "view",
      "type": "function"
    },
    {
      "inputs": [],
      "name": "onlyOwner",
      "outputs": [],
      "stateMutability": "view",
      "type": "function"
    },
    {
      "inputs": [
        {
          "internalType": "uint256",
          "name": "tokenId",
          "type": "uint256"
        }
      ],
      "name": "ownerOf",
      "outputs": [
        {
          "internalType": "address",
          "name": "",
          "type": "address"
        }
      ],
      "stateMutability": "view",
      "type": "function"
    },
    {
      "inputs": [],
      "name": "pauseContract",
      "outputs": [],
      "stateMutability": "nonpayable",
      "type": "function"
    },
    {
      "inputs": [],
      "name": "paused",
      "outputs": [],
      "stateMutability": "view",
      "type": "function"
    },
    {
      "inputs": [
        {
          "internalType": "address",
          "name": "from",
          "type": "address"
        },
        {
          "internalType": "address",
          "name": "to",
          "type": "address"
        },
        {
          "internalType": "uint256",
          "name": "tokenId",
          "type": "uint256"
        }
      ],
      "name": "safeTransferFrom",
      "outputs": [],
      "stateMutability": "nonpayable",
      "type": "function"
    },
    {
      "inputs": [
        {
          "internalType": "address",
          "name": "from",
          "type": "address"
        },
        {
          "internalType": "address",
          "name": "to",
          "type": "address"
        },
        {
          "internalType": "uint256",
          "name": "tokenId",
          "type": "uint256"
        },
        {
          "internalType": "bytes",
          "name": "_data",
          "type": "bytes"
        }
      ],
      "name": "safeTransferFrom",
      "outputs": [],
      "stateMutability": "nonpayable",
      "type": "function"
    },
    {
      "inputs": [
        {
          "internalType": "address",
          "name": "_to",
          "type": "address"
        },
        {
          "internalType": "bool",
          "name": "_approved",
          "type": "bool"
        }
      ],
      "name": "setApprovalForAll",
      "outputs": [],
      "stateMutability": "nonpayable",
      "type": "function"
    },
    {
      "inputs": [
        {
          "internalType": "bytes4",
          "name": "interfaceId",
          "type": "bytes4"
        }
      ],
      "name": "supportsInterface",
      "outputs": [
        {
          "internalType": "bool",
          "name": "",
          "type": "bool"
        }
      ],
      "stateMutability": "view",
      "type": "function"
    },
    {
      "inputs": [],
      "name": "symbol",
      "outputs": [
        {
          "internalType": "string",
          "name": "",
          "type": "string"
        }
      ],
      "stateMutability": "view",
      "type": "function"
    },
    {
      "inputs": [
        {
          "internalType": "uint256",
          "name": "tokenId",
          "type": "uint256"
        }
      ],
      "name": "tokenURI",
      "outputs": [
        {
          "internalType": "string",
          "name": "",
          "type": "string"
        }
      ],
      "stateMutability": "view",
      "type": "function"
    },
    {
      "inputs": [
        {
          "internalType": "address",
          "name": "from",
          "type": "address"
        },
        {
          "internalType": "address",
          "name": "to",
          "type": "address"
        },
        {
          "internalType": "uint256",
          "name": "tokenId",
          "type": "uint256"
        }
      ],
      "name": "transferFrom",
      "outputs": [],
      "stateMutability": "nonpayable",
      "type": "function"
    },
    {
      "inputs": [
        {
          "internalType": "address",
          "name": "_account",
          "type": "address"
        }
      ],
      "name": "transferOwnership",
      "outputs": [],
      "stateMutability": "nonpayable",
      "type": "function"
    },
    {
      "inputs": [],
      "name": "unpauseContract",
      "outputs": [],
      "stateMutability": "nonpayable",
      "type": "function"
    },
    {
      "inputs": [],
      "name": "whenNotPaused",
      "outputs": [],
      "stateMutability": "view",
      "type": "function"
    },
    {
      "inputs": [],
      "name": "mintToken",
      "outputs": [],
      "stateMutability": "nonpayable",
      "type": "function"
    },
    {
      "inputs": [
        {
          "internalType": "address",
          "name": "_owner",
          "type": "address"
        },
        {
          "internalType": "address",
          "name": "_operator",
          "type": "address"
        }
      ],
      "name": "isApprovedForAllCheck",
      "outputs": [
        {
          "internalType": "bool",
          "name": "",
          "type": "bool"
        }
      ],
      "stateMutability": "view",
      "type": "function"
    },
    {
      "inputs": [
        {
          "internalType": "address",
          "name": "_owner",
          "type": "address"
        },
        {
          "internalType": "uint256",
          "name": "_index",
          "type": "uint256"
        }
      ],
      "name": "tokenOfOwnerByIndex",
      "outputs": [
        {
          "internalType": "uint256",
          "name": "",
          "type": "uint256"
        }
      ],
      "stateMutability": "view",
      "type": "function"
    },
    {
      "inputs": [],
      "name": "getTotalTokenSupply",
      "outputs": [
        {
          "internalType": "uint256",
          "name": "totalSupply",
          "type": "uint256"
        }
      ],
      "stateMutability": "view",
      "type": "function"
    }
  ],
  "bytecode": "0x60806040523480156200001157600080fd5b5060405162001c0038038062001c0083398101604081905262000034916200025b565b60018054336001600160a01b031991821681179092556002805490911690911790558151829082908290829062000073906003906020850190620000e8565b50805162000089906004906020840190620000e8565b50620000a3935063780e9d6360e01b925050620000ab9050565b505062000302565b6001600160e01b03198082161415620000c357600080fd5b6001600160e01b0319166000908152602081905260409020805460ff19166001179055565b828054620000f690620002c5565b90600052602060002090601f0160209004810192826200011a576000855562000165565b82601f106200013557805160ff191683800117855562000165565b8280016001018555821562000165579182015b828111156200016557825182559160200191906001019062000148565b506200017392915062000177565b5090565b5b8082111562000173576000815560010162000178565b634e487b7160e01b600052604160045260246000fd5b600082601f830112620001b657600080fd5b81516001600160401b0380821115620001d357620001d36200018e565b604051601f8301601f19908116603f01168101908282118183101715620001fe57620001fe6200018e565b816040528381526020925086838588010111156200021b57600080fd5b600091505b838210156200023f578582018301518183018401529082019062000220565b83821115620002515760008385830101525b9695505050505050565b600080604083850312156200026f57600080fd5b82516001600160401b03808211156200028757600080fd5b6200029586838701620001a4565b93506020850151915080821115620002ac57600080fd5b50620002bb85828601620001a4565b9150509250929050565b600181811c90821680620002da57607f821691505b60208210811415620002fc57634e487b7160e01b600052602260045260246000fd5b50919050565b6118ee80620003126000396000f3fe608060405234801561001057600080fd5b506004361061018e5760003560e01c80635c975abb116100de578063a22cb46511610097578063c4e41b2211610071578063c4e41b221461034a578063c87b56dd14610352578063e985e9c514610365578063f2fde38b1461037857600080fd5b8063a22cb4651461031c578063b33712c51461032f578063b88d4fde1461033757600080fd5b80635c975abb146102c25780636352211e146102ca57806370a08231146102dd578063893d20e8146102f057806395d89b411461030157806398d77dc01461030957600080fd5b80631036e0a81161014b5780632f745c59116101255780632f745c591461028c57806342842e0e1461029f578063439766ce146102b25780635c2dc4f0146102ba57600080fd5b80631036e0a8146102695780632004ffd91461027157806323b872dd1461027957600080fd5b806301ffc9a71461019357806302ccc241146101bb578063047087cc146101e857806306fdde03146101fe578063081812fc14610213578063095ea7b314610254575b600080fd5b6101a66101a13660046113fe565b61038b565b60405190151581526020015b60405180910390f35b6101a66101c93660046113fe565b6001600160e01b03191660009081526020819052604090205460ff1690565b6101f06103dd565b6040519081526020016101b2565b6102066103ec565b6040516101b29190611473565b61023c610221366004611486565b6000908152600b60205260409020546001600160a01b031690565b6040516001600160a01b0390911681526020016101b2565b6102676102623660046114bb565b61047e565b005b6102676105a6565b6102676105f5565b6102676102873660046114e5565b61067d565b6101f061029a3660046114bb565b6106b3565b6102676102ad3660046114e5565b610739565b610267610754565b610267610806565b610267610855565b61023c6102d8366004611486565b61089f565b6101f06102eb366004611521565b610916565b6001546001600160a01b031661023c565b61020661099d565b6101a661031736600461153c565b6109ac565b61026761032a36600461156f565b6109bf565b610267610a42565b6102676103453660046115c1565b610aef565b6101f0610b27565b610206610360366004611486565b610b32565b6101a661037336600461153c565b610c19565b610267610386366004611521565b610c47565b60006001600160e01b031982166380ac58cd60e01b14806103bc57506001600160e01b03198216635b5e139f60e01b145b806103d757506301ffc9a760e01b6001600160e01b03198316145b92915050565b60006103e7610b27565b905090565b6060600380546103fb9061169d565b80601f01602080910402602001604051908101604052809291908181526020018280546104279061169d565b80156104745780601f1061044957610100808354040283529160200191610474565b820191906000526020600020905b81548152906001019060200180831161045757829003601f168201915b5050505050905090565b6000818152600a60205260409020546001600160a01b03838116911614156104ed5760405162461bcd60e51b815260206004820152601c60248201527f6d757374206e6f7420626520617070726f76656420616464726573730000000060448201526064015b60405180910390fd5b6002546001600160a01b031633148061050b575061050b3383610c19565b61054d5760405162461bcd60e51b815260206004820152601360248201527218d85b1b195c881b9bdd08185c1c1c9bdd9959606a1b60448201526064016104e4565b6000818152600b602052604080822080546001600160a01b0319166001600160a01b0386169081179091559051839233917f8c5be1e5ebec7d5bd14f71427d1e84f3dd0314c0f7b2291e5b200ac8c7c3b9259190a45050565b6001546001600160a01b031633146105f35760405162461bcd60e51b815260206004820152601060248201526f31b0b63632b9103737ba1037bbb732b960811b60448201526064016104e4565b565b60006105ff610b27565b905061060a33610c8f565b336000908152600d602090815260408083208054858552600e84528285208190556001808201835591855283852001859055600f80548686526010909452918420839055820181559091527f8d1108e10bcb7c27dddfc02ed9d693a074039d026cf4ea4240b40f7d581ac8020155565b50565b6106873382610d41565b6106a35760405162461bcd60e51b81526004016104e4906116d8565b6106ae838383610e18565b505050565b60006106be83610916565b82106106fc5760405162461bcd60e51b815260206004820152600d60248201526c0d2dcecc2d8d2c840d2dcc8caf609b1b60448201526064016104e4565b6001600160a01b0383166000908152600d6020526040902080548390811061072657610726611729565b9060005260206000200154905092915050565b6106ae83838360405180602001604052806000815250610aef565b61075c6105a6565b600154600160a01b900460ff16156107ac5760405162461bcd60e51b81526020600482015260136024820152726e6f7420696e2070617573656420737461746560681b60448201526064016104e4565b6001805460ff60a01b1916600160a01b90811791829055604080513381529190920460ff16151560208201527f9885b484a3068de5c38fb9073ed8489371efc9514b9a174a9cd1df5326d2e45491015b60405180910390a1565b600154600160a01b900460ff16156105f35760405162461bcd60e51b81526020600482015260126024820152711b5d5cdd081b9bdd081899481c185d5cd95960721b60448201526064016104e4565b600154600160a01b900460ff166105f35760405162461bcd60e51b815260206004820152600e60248201526d1b5d5cdd081899481c185d5cd95960921b60448201526064016104e4565b6000818152600560205260408120546001600160a01b0316806103d75760405162461bcd60e51b815260206004820152602960248201527f4552433732313a206f776e657220717565727920666f72206e6f6e657869737460448201526832b73a103a37b5b2b760b91b60648201526084016104e4565b60006001600160a01b0382166109815760405162461bcd60e51b815260206004820152602a60248201527f4552433732313a2062616c616e636520717565727920666f7220746865207a65604482015269726f206164647265737360b01b60648201526084016104e4565b506001600160a01b031660009081526006602052604090205490565b6060600480546103fb9061169d565b60006109b88383610c19565b9392505050565b6001600160a01b0382163314156109d557600080fd5b336000818152600c602090815260408083206001600160a01b03871680855290835292819020805460ff191686151590811790915590519081529192917f17307eab39ab6107e8899845ad3d59bd9653f200f220920489ca2b5937696c3191015b60405180910390a35050565b610a4a6105a6565b60018054600160a01b900460ff16151514610a9f5760405162461bcd60e51b81526020600482015260156024820152746e6f7420696e20756e70617573656420737461746560581b60448201526064016104e4565b6001805460ff60a01b19169081905560408051338152600160a01b90920460ff16151560208301527fd0c0d0bdd7ffcf7b8e5922aa102f0dfc3e6cd7378f774bd623a7348b13c8628991016107fc565b610af93383610d41565b610b155760405162461bcd60e51b81526004016104e4906116d8565b610b2184848484610fb8565b50505050565b60006103e760095490565b6000818152600560205260409020546060906001600160a01b0316610bb15760405162461bcd60e51b815260206004820152602f60248201527f4552433732314d657461646174613a2055524920717565727920666f72206e6f60448201526e3732bc34b9ba32b73a103a37b5b2b760891b60648201526084016104e4565b6000610bc860408051602081019091526000815290565b90506000815111610be857604051806020016040528060008152506109b8565b80610bf284610feb565b604051602001610c0392919061173f565b6040516020818303038152906040529392505050565b6001600160a01b039182166000908152600c6020908152604080832093909416825291909152205460ff1690565b610c4f6105a6565b506001546040516001600160a01b0390911690819033907fdb6d05f3295cede580affa301a1eb5297528f3b3f6a56b075887ce6f61c45f2190600090a350565b6001600160a01b038116610cde5760405162461bcd60e51b815260206004820152601660248201527563616e6e6f74206265207a65726f206164647265737360501b60448201526064016104e4565b6000610ce960095490565b9050610cf9600980546001019055565b610d0382826110e9565b6040518181526001600160a01b038316906000907f0a85107a334eae0d22d21cdf13af0f8e8125039ec60baaa843d2c4c5b068017490602001610a36565b6000818152600560205260408120546001600160a01b0316610dba5760405162461bcd60e51b815260206004820152602c60248201527f4552433732313a206f70657261746f7220717565727920666f72206e6f6e657860448201526b34b9ba32b73a103a37b5b2b760a11b60648201526084016104e4565b6000610dc58361089f565b9050806001600160a01b0316846001600160a01b03161480610e0057506000838152600b60205260409020546001600160a01b038581169116145b80610e105750610e108185610c19565b949350505050565b826001600160a01b0316610e2b8261089f565b6001600160a01b031614610e935760405162461bcd60e51b815260206004820152602960248201527f4552433732313a207472616e73666572206f6620746f6b656e2074686174206960448201526839903737ba1037bbb760b91b60648201526084016104e4565b6001600160a01b038216610ef55760405162461bcd60e51b8152602060048201526024808201527f4552433732313a207472616e7366657220746f20746865207a65726f206164646044820152637265737360e01b60648201526084016104e4565b610f00600082611107565b6001600160a01b0383166000908152600660205260408120805460019290610f29908490611784565b90915550506001600160a01b0382166000908152600660205260408120805460019290610f5790849061179b565b909155505060008181526005602052604080822080546001600160a01b0319166001600160a01b0386811691821790925591518493918716917fddf252ad1be2c89b69c2b068fc378daa952ba7f163c4a11628f55a4df523b3ef91a4505050565b610fc3848484610e18565b610fcf84848484611175565b610b215760405162461bcd60e51b81526004016104e4906117b3565b60608161100f5750506040805180820190915260018152600360fc1b602082015290565b8160005b8115611039578061102381611805565b91506110329050600a83611836565b9150611013565b60008167ffffffffffffffff811115611054576110546115ab565b6040519080825280601f01601f19166020018201604052801561107e576020820181803683370190505b5090505b8415610e1057611093600183611784565b91506110a0600a8661184a565b6110ab90603061179b565b60f81b8183815181106110c0576110c0611729565b60200101906001600160f81b031916908160001a9053506110e2600a86611836565b9450611082565b611103828260405180602001604052806000815250611273565b5050565b600081815260076020526040902080546001600160a01b0319166001600160a01b038416908117909155819061113c8261089f565b6001600160a01b03167f8c5be1e5ebec7d5bd14f71427d1e84f3dd0314c0f7b2291e5b200ac8c7c3b92560405160405180910390a45050565b60006001600160a01b0384163b1561126857604051630a85bd0160e11b81526001600160a01b0385169063150b7a02906111b990339089908890889060040161185e565b6020604051808303816000875af19250505080156111f4575060408051601f3d908101601f191682019092526111f19181019061189b565b60015b61124e573d808015611222576040519150601f19603f3d011682016040523d82523d6000602084013e611227565b606091505b5080516112465760405162461bcd60e51b81526004016104e4906117b3565b805181602001fd5b6001600160e01b031916630a85bd0160e11b149050610e10565b506001949350505050565b61127d83836112a6565b61128a6000848484611175565b6106ae5760405162461bcd60e51b81526004016104e4906117b3565b6001600160a01b0382166112fc5760405162461bcd60e51b815260206004820181905260248201527f4552433732313a206d696e7420746f20746865207a65726f206164647265737360448201526064016104e4565b6000818152600560205260409020546001600160a01b0316156113615760405162461bcd60e51b815260206004820152601c60248201527f4552433732313a20746f6b656e20616c7265616479206d696e7465640000000060448201526064016104e4565b6001600160a01b038216600090815260066020526040812080546001929061138a90849061179b565b909155505060008181526005602052604080822080546001600160a01b0319166001600160a01b03861690811790915590518392907fddf252ad1be2c89b69c2b068fc378daa952ba7f163c4a11628f55a4df523b3ef908290a45050565b6001600160e01b03198116811461067a57600080fd5b60006020828403121561141057600080fd5b81356109b8816113e8565b60005b8381101561143657818101518382015260200161141e565b83811115610b215750506000910152565b6000815180845261145f81602086016020860161141b565b601f01601f19169290920160200192915050565b6020815260006109b86020830184611447565b60006020828403121561149857600080fd5b5035919050565b80356001600160a01b03811681146114b657600080fd5b919050565b600080604083850312156114ce57600080fd5b6114d78361149f565b946020939093013593505050565b6000806000606084860312156114fa57600080fd5b6115038461149f565b92506115116020850161149f565b9150604084013590509250925092565b60006020828403121561153357600080fd5b6109b88261149f565b6000806040838503121561154f57600080fd5b6115588361149f565b91506115666020840161149f565b90509250929050565b6000806040838503121561158257600080fd5b61158b8361149f565b9150602083013580151581146115a057600080fd5b809150509250929050565b634e487b7160e01b600052604160045260246000fd5b600080600080608085870312156115d757600080fd5b6115e08561149f565b93506115ee6020860161149f565b925060408501359150606085013567ffffffffffffffff8082111561161257600080fd5b818701915087601f83011261162657600080fd5b813581811115611638576116386115ab565b604051601f8201601f19908116603f01168101908382118183101715611660576116606115ab565b816040528281528a602084870101111561167957600080fd5b82602086016020830137600060208483010152809550505050505092959194509250565b600181811c908216806116b157607f821691505b602082108114156116d257634e487b7160e01b600052602260045260246000fd5b50919050565b60208082526031908201527f4552433732313a207472616e736665722063616c6c6572206973206e6f74206f6040820152701ddb995c881b9bdc88185c1c1c9bdd9959607a1b606082015260800190565b634e487b7160e01b600052603260045260246000fd5b6000835161175181846020880161141b565b83519083019061176581836020880161141b565b01949350505050565b634e487b7160e01b600052601160045260246000fd5b6000828210156117965761179661176e565b500390565b600082198211156117ae576117ae61176e565b500190565b60208082526032908201527f4552433732313a207472616e7366657220746f206e6f6e20455243373231526560408201527131b2b4bb32b91034b6b83632b6b2b73a32b960711b606082015260800190565b60006000198214156118195761181961176e565b5060010190565b634e487b7160e01b600052601260045260246000fd5b60008261184557611845611820565b500490565b60008261185957611859611820565b500690565b6001600160a01b038581168252841660208201526040810183905260806060820181905260009061189190830184611447565b9695505050505050565b6000602082840312156118ad57600080fd5b81516109b8816113e856fea264697066735822122045bf0881702b8cacabeabbceb6ce0bf5083d6a483798b96693988a802fffc0f964736f6c634300080a0033",
  "immutableReferences": {},
  "source": "// SPDX-License-Identifier: MIT\n\npragma solidity >=0.5.0 <0.9.0;\n\nimport './MyERC721.sol';\nimport './MyERC165.sol';\nimport '@openzeppelin/contracts/utils/math/SafeMath.sol';\n\n\ncontract MyERC721Enumerable is  MyERC165,  MyERC721 {\n\tusing SafeMath for uint256;\n\t/********************************************************************************************/\n\t/*                                      STATE VARIABLES                                    */\n\t/******************************************************************************************/\n    \n  // mapping owner to list owned IDs\n  mapping(address => uint256[]) private _ownedTokens;\n\t\n\t// mapping token ID to owner' tokens list\n\tmapping(uint256 => uint256) private _ownedTokensIndex;\n\t\n\t// array of token IDs\n\tuint256[] private _allTokens;\n\t\n\t// mapping token id to position in allTokens array\n\tmapping(uint256 => uint256) private _allTokensIndex;\n    \n\tbytes4 private constant _INTERFACE_ID_ERC721_ENUMERABLE = 0x780e9d63;\n\t/*\n\t\t* 0x780e9d63 ===\n\t\t*     bytes4(keccak256('totalSupply()')) ^\n\t\t*     bytes4(keccak256('tokenOfOwnerByIndex(address,uint256)')) ^\n\t\t*     bytes4(keccak256('tokenByIndex(uint256)'))\n\t\t*/\n\n\t/**\n\t\t* @dev Constructor function\n\t*/\n\tconstructor (string memory _tokenName, string memory _symbol) MyERC721(_tokenName, _symbol) {\n\t\t// register the supported interface to conform to ERC721Enumerable via ERC165\n\t\t_registerInterface(_INTERFACE_ID_ERC721_ENUMERABLE);\n\n\t}\n\t\n\t/**\n\t\t* @dev Internal function to mint a new token\n\t\t* Reverts if the given token ID already exists\n\t\t*/\n\tfunction mintToken() public  {\n\t\tuint256 tokenId = getTotalSupply();\n\t\tmintToken(msg.sender);\n\t\t_addTokenOwnerEnumeration(msg.sender, tokenId);\n\t\t_addTokenToAllEnumeration(tokenId);\n\t}\n\n\t/**\n\t\t* @dev Internal function to transfer ownership of a given token ID to another address.\n\t\t* As opposed to transferFrom, this imposes no restrictions on msg.sender.\n\t\t* @param _from current owner of the token\n\t\t* @param _to address to receive the ownership of the given token ID\n\t\t* @param _tokenId uint256 ID of the token to be transferred\n\t*/\n\t\n\tfunction _transferTokenFrom(address _from, address _to, uint256 _tokenId) internal   {\n\t\trequire(_ownedTokens[_from][_tokenId] == _tokenId, 'token not owned');\n\t\t_removeTokenFromOwnerEnumeration(_from, _tokenId);\n\t\t_addTokenOwnerEnumeration(_to, _tokenId);\n\t\t_transferTokenFrom(_from, _to, _tokenId);\n\t\t\t\n\t}\n\t\n\t/**\n\t\t* @dev Private function to add a token to this extension's ownership-tracking data structures.\n\t\t* @param _to address representing the new owner of the given token ID\n\t\t* @param _tokenId uint256 ID of the token to be added to the tokens list of the given address\n\t*/\n\t\t\n\tfunction _addTokenOwnerEnumeration(address _to, uint256 _tokenId) private {\n\t\t_ownedTokensIndex[_tokenId] = _ownedTokens[_to].length;\n\t\t_ownedTokens[_to].push(_tokenId);\n\t\n\t}\n\t\n     \n\t/**\n\t* @dev Private function to add a token to this extension's token tracking data structures.\n\t* @param _tokenId uint256 ID of the token to be added to the tokens list\n\t*/\n\tfunction _addTokenToAllEnumeration(uint256 _tokenId) private {\n\t\t_allTokensIndex[_tokenId] = _allTokens.length;\n\n\t\t_allTokens.push(_tokenId);\n\t}\n     \n\t/**\n\t\t* @dev Private function to remove a token from this extension's ownership-tracking data structures. Note that\n\t\t* while the token is not assigned a new owner, the `_ownedTokensIndex` mapping is _not_ updated: this allows for\n\t\t* gas optimizations e.g. when performing a transfer operation (avoiding double writes).\n\t\t* This has O(1) time complexity, but alters the order of the _ownedTokens array.\n\t\t* @param _from address representing the previous owner of the given token ID\n\t\t* @param _tokenId uint256 ID of the token to be removed from the tokens list of the given address\n\t*/\n\n\tfunction _removeTokenFromOwnerEnumeration(address _from, uint256 _tokenId) private {\n\t\t// To prevent a gap in from's tokens array, we store the last token in the index of the token to delete, and\n\t\t// then delete the last slot (swap and pop).\n\n\t\tuint256 lastTokenIndex = ERC721.balanceOf(_from) - 1;\n\t\tuint256 tokenIndex = _ownedTokensIndex[_tokenId];\n\n\t\t// When the token to delete is the last token, the swap operation is unnecessary\n\t\tif (tokenIndex != lastTokenIndex) {\n\t\t\tuint256 lastTokenId = _ownedTokens[_from][lastTokenIndex];\n\n\t\t\t_ownedTokens[_from][tokenIndex] = lastTokenId; // Move the last token to the slot of the to-delete token\n\t\t\t_ownedTokensIndex[lastTokenId] = tokenIndex; // Update the moved token's index\n\t\t}\n\n\t\t// This also deletes the contents at the last position of the array\n\t\tdelete _ownedTokensIndex[_tokenId];\n\t\tdelete _ownedTokens[_from][lastTokenIndex];\n\t}\n\t\n    \n\t/********************************************************************************************/\n\t/*                                      UTILITY FUNCITONS                                  */\n\t/******************************************************************************************/\n\n\n\t/**\n\t\t* @dev Gets the list of token IDs of the requested owner\n\t\t* @param _owner address owning the tokens\n\t\t* @return uint256[] List of token IDs owned by the requested address\n\t*/\n     \n\t\n\tfunction getTokensOfOwner(address _owner) internal view returns(uint256[] storage) {\n\t\treturn _ownedTokens[_owner];\n\t\t\t\n\t}\n     \n\tfunction isApprovedForAllCheck(address _owner, address _operator) public view  returns (bool) {\n\t\t// return _operatorApprovals[owner][operator];\n\t\treturn isApprovedForAll(_owner, _operator);\n\t}\n\n    \n\t/**\n\t\t* @dev Gets the token ID at a given index of the tokens list of the requested owner\n\t\t* @param _owner address owning the tokens list to be accessed\n\t\t* @param _index uint256 representing the index to be accessed of the requested tokens list\n\t\t* @return uint256 token ID at the given index of the tokens list owned by the requested address\n\t*/\n\n\tfunction tokenOfOwnerByIndex(address _owner, uint256 _index) public view returns(uint256) {\n\t\trequire(_index < balanceOf(_owner), 'invalid index');\n\t\treturn _ownedTokens[_owner][_index];\n\t\t\n\t}\n\n\tfunction getTotalTokenSupply() external view returns(uint256 totalSupply) {\n\t\ttotalSupply = getTotalSupply();\n\t\treturn totalSupply;\n\t}\n\n    \n}",
  "sourcePath": "/Users/dav/Desktop/capstone-final/real-estate-marketplace/contracts/MyERC721Enumerable.sol",
  "compiler": {
    "name": "solc",
    "version": "0.8.10+commit.fc410830.Emscripten.clang"
  },
  "schemaVersion": "3.4.3",
  "updatedAt": "2021-12-20T09:54:02.225Z",
  "devdoc": {
    "kind": "dev",
    "methods": {
      "approve(address,uint256)": {
        "details": "approve another address to transfer the given tokenId"
      },
      "balanceOf(address)": {
        "details": "See {IERC721-balanceOf}."
      },
      "checkSupportInterface(bytes4)": {
        "details": "implement supportsInterface(bytes4) using a lookup table"
      },
      "constructor": {
        "details": "Constructor function"
      },
      "isApprovedForAll(address,address)": {
        "details": "Tells whether an operator is approved by a given owner",
        "params": {
          "_operator": "operator address which you want to query the approval of",
          "_owner": "owner address which you want to query the approval of"
        },
        "returns": {
          "_0": "bool whether the given operator is approved by the given owner"
        }
      },
      "mintToken()": {
        "details": "Internal function to mint a new token Reverts if the given token ID already exists"
      },
      "name()": {
        "details": "See {IERC721Metadata-name}."
      },
      "ownerOf(uint256)": {
        "details": "See {IERC721-ownerOf}."
      },
      "safeTransferFrom(address,address,uint256)": {
        "details": "See {IERC721-safeTransferFrom}."
      },
      "safeTransferFrom(address,address,uint256,bytes)": {
        "details": "See {IERC721-safeTransferFrom}."
      },
      "setApprovalForAll(address,bool)": {
        "details": "Sets or unsets the approval of a given operator An operator is allowed to transfer all tokens of the sender on their behalf",
        "params": {
          "_to": "operator address to set the approval"
        }
      },
      "supportsInterface(bytes4)": {
        "details": "See {IERC165-supportsInterface}."
      },
      "symbol()": {
        "details": "See {IERC721Metadata-symbol}."
      },
      "tokenOfOwnerByIndex(address,uint256)": {
        "details": "Gets the token ID at a given index of the tokens list of the requested owner",
        "params": {
          "_index": "uint256 representing the index to be accessed of the requested tokens list",
          "_owner": "address owning the tokens list to be accessed"
        },
        "returns": {
          "_0": "uint256 token ID at the given index of the tokens list owned by the requested address"
        }
      },
      "tokenURI(uint256)": {
        "details": "See {IERC721Metadata-tokenURI}."
      },
      "transferFrom(address,address,uint256)": {
        "details": "See {IERC721-transferFrom}."
      }
    },
    "version": 1
  },
  "userdoc": {
    "kind": "user",
    "methods": {},
    "version": 1
  }
}