{
  "contractName": "MyERC165",
  "abi": [
    {
      "inputs": [],
      "stateMutability": "nonpayable",
      "type": "constructor"
    },
    {
      "inputs": [
        {
          "internalType": "bytes4",
          "name": "_interfaceId",
          "type": "bytes4"
        }
      ],
      "name": "checkSupportInterface",
      "outputs": [
        {
          "internalType": "bool",
          "name": "",
          "type": "bool"
        }
      ],
      "stateMutability": "view",
      "type": "function"
    }
  ],
  "bytecode": "0x608060405234801561001057600080fd5b5060d08061001f6000396000f3fe6080604052348015600f57600080fd5b506004361060285760003560e01c806302ccc24114602d575b600080fd5b60576038366004606b565b6001600160e01b03191660009081526020819052604090205460ff1690565b604051901515815260200160405180910390f35b600060208284031215607c57600080fd5b81356001600160e01b031981168114609357600080fd5b939250505056fea2646970667358221220fb772649a07c5f807358751fa21f4751f54c9b6e8a2c39262b37985b20d24f7264736f6c634300080a0033",
  "immutableReferences": {},
  "source": "// SPDX-License-Identifier: MIT\n\npragma solidity >=0.5.0 <0.9.0;\n\ncontract MyERC165 {\n\tbytes4 private constant _INTERFACE_ID_ERC165 = 0x01ffc9a7;\n\n\t/*\n\t\t* 0x01ffc9a7 ===\n\t\t*     bytes4(keccak256('supportsInterface(bytes4)'))\n\t\t*/\n\n\t/**\n\t\t* @dev a mapping of interface id to whether or not it's supported\n\t\t*/\n\n\tmapping(bytes4 => bool) private _supportedInterfaces;\n\n\t/**\n\t\t* @dev A contract implementing SupportsInterfaceWithLookup\n\t\t* implement ERC165 itself\n\t*/\n\n\n\tconstructor() {\n\n\t}\n\n\t/********************************************************************************************/\n\t/*                                      CORE FUNCTIONS                           */\n\t/******************************************************************************************/\n\n\t/**\n\t* @dev internal method for registering an interface\n\t*/\n\n\tfunction _registerInterface(bytes4 _interfaceId) internal {\n\t\t\trequire(_interfaceId != 0xffffffff);\n\t\t\t_supportedInterfaces[_interfaceId] = true;\n\t}\n\n\n\t/********************************************************************************************/\n\t/*                                      UTILITY FUNCTIONS                                  */\n\t/******************************************************************************************/\n\n\t/**\n\t\t* @dev implement supportsInterface(bytes4) using a lookup table\n\t\t*/\n\tfunction checkSupportInterface(bytes4 _interfaceId) external view virtual returns(bool) {\n\t\t\treturn _supportedInterfaces[_interfaceId];\n\t}\n\n\n}\n",
  "sourcePath": "/Users/dav/Desktop/capstone-final/real-estate-marketplace/contracts/MyERC165.sol",
  "compiler": {
    "name": "solc",
    "version": "0.8.10+commit.fc410830.Emscripten.clang"
  },
  "schemaVersion": "3.4.3",
  "updatedAt": "2021-12-20T08:27:37.337Z",
  "devdoc": {
    "kind": "dev",
    "methods": {
      "checkSupportInterface(bytes4)": {
        "details": "implement supportsInterface(bytes4) using a lookup table"
      },
      "constructor": {
        "details": "A contract implementing SupportsInterfaceWithLookup implement ERC165 itself"
      }
    },
    "stateVariables": {
      "_supportedInterfaces": {
        "details": "a mapping of interface id to whether or not it's supported"
      }
    },
    "version": 1
  },
  "userdoc": {
    "kind": "user",
    "methods": {},
    "version": 1
  }
}