{
  "contractName": "Ownable",
  "abi": [
    {
      "inputs": [],
      "stateMutability": "nonpayable",
      "type": "constructor"
    },
    {
      "anonymous": false,
      "inputs": [
        {
          "indexed": true,
          "internalType": "address",
          "name": "oldOwner",
          "type": "address"
        },
        {
          "indexed": true,
          "internalType": "address",
          "name": "newOwner",
          "type": "address"
        }
      ],
      "name": "LogOwnershipTransferred",
      "type": "event"
    },
    {
      "inputs": [],
      "name": "onlyOwner",
      "outputs": [],
      "stateMutability": "view",
      "type": "function"
    },
    {
      "inputs": [],
      "name": "getOwner",
      "outputs": [
        {
          "internalType": "address",
          "name": "",
          "type": "address"
        }
      ],
      "stateMutability": "view",
      "type": "function"
    },
    {
      "inputs": [
        {
          "internalType": "address",
          "name": "_account",
          "type": "address"
        }
      ],
      "name": "transferOwnership",
      "outputs": [],
      "stateMutability": "nonpayable",
      "type": "function"
    }
  ],
  "bytecode": "0x608060405234801561001057600080fd5b50600080546001600160a01b03191633179055610181806100326000396000f3fe608060405234801561001057600080fd5b50600436106100415760003560e01c80631036e0a814610046578063893d20e814610050578063f2fde38b1461006f575b600080fd5b61004e610082565b005b600054604080516001600160a01b039092168252519081900360200190f35b61004e61007d36600461011b565b6100d5565b6000546001600160a01b031633146100d35760405162461bcd60e51b815260206004820152601060248201526f31b0b63632b9103737ba1037bbb732b960811b604482015260640160405180910390fd5b565b6100dd610082565b50600080546040516001600160a01b0390911691829133917fdb6d05f3295cede580affa301a1eb5297528f3b3f6a56b075887ce6f61c45f2191a350565b60006020828403121561012d57600080fd5b81356001600160a01b038116811461014457600080fd5b939250505056fea26469706673582212208c261754727a907e8c407338ce25cafc9a0cef772778781bf0250fdd686989cd64736f6c634300080a0033",
  "immutableReferences": {},
  "source": "// SPDX-License-Identifier: MIT\n\npragma solidity >=0.5.0 <0.9.0;\n\ncontract Ownable {\n\n\n  address private _owner;\n  event LogOwnershipTransferred(address indexed oldOwner, address indexed newOwner);\n\n\n  function onlyOwner() public view {\n    require(msg.sender == _owner, 'caller not owner');\n  }\n\n  modifier checkOnlyOwner() {\n    onlyOwner();\n    _;\n  }\n\n  constructor() {\n    _owner = msg.sender;\n  }\n\n  function getOwner() public view returns(address) {\n    return _owner;\n  }\n\n  function transferOwnership(address _account) public checkOnlyOwner {\n    _account = _owner;\n    emit LogOwnershipTransferred(msg.sender, _owner);\n  }\n\n}",
  "sourcePath": "/Users/dav/Desktop/capstone-final/real-estate-marketplace/contracts/Ownable.sol",
  "compiler": {
    "name": "solc",
    "version": "0.8.10+commit.fc410830.Emscripten.clang"
  },
  "schemaVersion": "3.4.3",
  "updatedAt": "2021-12-20T08:27:37.365Z",
  "devdoc": {
    "kind": "dev",
    "methods": {},
    "version": 1
  },
  "userdoc": {
    "kind": "user",
    "methods": {},
    "version": 1
  }
}