{
  "contractName": "Pausable",
  "abi": [
    {
      "inputs": [],
      "stateMutability": "nonpayable",
      "type": "constructor"
    },
    {
      "anonymous": false,
      "inputs": [
        {
          "indexed": true,
          "internalType": "address",
          "name": "oldOwner",
          "type": "address"
        },
        {
          "indexed": true,
          "internalType": "address",
          "name": "newOwner",
          "type": "address"
        }
      ],
      "name": "LogOwnershipTransferred",
      "type": "event"
    },
    {
      "anonymous": false,
      "inputs": [
        {
          "indexed": false,
          "internalType": "address",
          "name": "owner",
          "type": "address"
        },
        {
          "indexed": false,
          "internalType": "bool",
          "name": "status",
          "type": "bool"
        }
      ],
      "name": "LogPaused",
      "type": "event"
    },
    {
      "anonymous": false,
      "inputs": [
        {
          "indexed": false,
          "internalType": "address",
          "name": "owner",
          "type": "address"
        },
        {
          "indexed": false,
          "internalType": "bool",
          "name": "status",
          "type": "bool"
        }
      ],
      "name": "LogUnpaused",
      "type": "event"
    },
    {
      "inputs": [],
      "name": "getOwner",
      "outputs": [
        {
          "internalType": "address",
          "name": "",
          "type": "address"
        }
      ],
      "stateMutability": "view",
      "type": "function"
    },
    {
      "inputs": [],
      "name": "onlyOwner",
      "outputs": [],
      "stateMutability": "view",
      "type": "function"
    },
    {
      "inputs": [
        {
          "internalType": "address",
          "name": "_account",
          "type": "address"
        }
      ],
      "name": "transferOwnership",
      "outputs": [],
      "stateMutability": "nonpayable",
      "type": "function"
    },
    {
      "inputs": [],
      "name": "whenNotPaused",
      "outputs": [],
      "stateMutability": "view",
      "type": "function"
    },
    {
      "inputs": [],
      "name": "paused",
      "outputs": [],
      "stateMutability": "view",
      "type": "function"
    },
    {
      "inputs": [],
      "name": "pauseContract",
      "outputs": [],
      "stateMutability": "nonpayable",
      "type": "function"
    },
    {
      "inputs": [],
      "name": "unpauseContract",
      "outputs": [],
      "stateMutability": "nonpayable",
      "type": "function"
    }
  ],
  "bytecode": "0x608060405234801561001057600080fd5b5060008054336001600160a01b031991821681178355600180549092161790556103d790819061004090396000f3fe608060405234801561001057600080fd5b506004361061007d5760003560e01c80635c975abb1161005b5780635c975abb1461009c578063893d20e8146100a4578063b33712c5146100c3578063f2fde38b146100cb57600080fd5b80631036e0a814610082578063439766ce1461008c5780635c2dc4f014610094575b600080fd5b61008a6100de565b005b61008a610132565b61008a6101e4565b61008a610233565b600054604080516001600160a01b039092168252519081900360200190f35b61008a61027d565b61008a6100d9366004610371565b61032b565b6000546001600160a01b031633146101305760405162461bcd60e51b815260206004820152601060248201526f31b0b63632b9103737ba1037bbb732b960811b60448201526064015b60405180910390fd5b565b61013a6100de565b600054600160a01b900460ff161561018a5760405162461bcd60e51b81526020600482015260136024820152726e6f7420696e2070617573656420737461746560681b6044820152606401610127565b6000805460ff60a01b1916600160a01b90811791829055604080513381529190920460ff16151560208201527f9885b484a3068de5c38fb9073ed8489371efc9514b9a174a9cd1df5326d2e45491015b60405180910390a1565b600054600160a01b900460ff16156101305760405162461bcd60e51b81526020600482015260126024820152711b5d5cdd081b9bdd081899481c185d5cd95960721b6044820152606401610127565b600054600160a01b900460ff166101305760405162461bcd60e51b815260206004820152600e60248201526d1b5d5cdd081899481c185d5cd95960921b6044820152606401610127565b6102856100de565b600054600160a01b900460ff1615156001146102db5760405162461bcd60e51b81526020600482015260156024820152746e6f7420696e20756e70617573656420737461746560581b6044820152606401610127565b6000805460ff60a01b19169081905560408051338152600160a01b90920460ff16151560208301527fd0c0d0bdd7ffcf7b8e5922aa102f0dfc3e6cd7378f774bd623a7348b13c8628991016101da565b6103336100de565b50600080546040516001600160a01b0390911691829133917fdb6d05f3295cede580affa301a1eb5297528f3b3f6a56b075887ce6f61c45f2191a350565b60006020828403121561038357600080fd5b81356001600160a01b038116811461039a57600080fd5b939250505056fea2646970667358221220a51693c498f5502034d8fb3b4a589f6e45f8f70b372ffa8c2517c27803aef87e64736f6c634300080a0033",
  "immutableReferences": {},
  "source": "// SPDX-License-Identifier: MIT\n \npragma solidity >=0.5.0 <0.9.0;\nimport './Ownable.sol';\n\ncontract Pausable is Ownable {\n    \n/********************************************************************************************/\n  /*                                      STATE VARIABLES                           */\n  /******************************************************************************************/\n  bool private _paused;\n  address contractOwner;\n\n  /********************************************************************************************/\n  /*                                      EVENT                                              */\n  /******************************************************************************************/\n  event LogPaused(address owner, bool status);\n  event LogUnpaused(address owner, bool status);\n  function whenNotPaused() public view {\n    require(!_paused, 'must not be paused');\n  }\n\n  function paused() public view {\n    require(_paused, 'must be paused');\n  }\n\n  modifier checkPaused() {\n    paused();\n    _;\n  }\n\n  modifier checkNotPaused() {\n    whenNotPaused();\n    _;\n  }\n\n\n  constructor() {\n    contractOwner = msg.sender;\n    \n\n  } \n\n\n  /********************************************************************************************/\n  /*                                     CORE FUNCTIONS                                      */\n  /******************************************************************************************/\n  function pauseContract() public checkOnlyOwner {\n    require(_paused == false, 'not in paused state');\n    _paused = true;\n    emit LogPaused(msg.sender, _paused);\n  }\n\n  function unpauseContract() public checkOnlyOwner {\n    require(_paused == true, 'not in unpaused state');\n    _paused = false;\n    emit LogUnpaused(msg.sender, _paused);\n  }\n\n\n  /********************************************************************************************/\n  /*                                      UTILITY FUNCTIONS                                  */\n  /******************************************************************************************/\n\n\n  \n\n\n\n\n\n}\n",
  "sourcePath": "/Users/dav/Desktop/capstone-final/real-estate-marketplace/contracts/Pausable.sol",
  "compiler": {
    "name": "solc",
    "version": "0.8.10+commit.fc410830.Emscripten.clang"
  },
  "schemaVersion": "3.4.3",
  "updatedAt": "2021-12-20T08:27:37.366Z",
  "devdoc": {
    "kind": "dev",
    "methods": {},
    "version": 1
  },
  "userdoc": {
    "kind": "user",
    "methods": {},
    "version": 1
  }
}