{
  "contractName": "RealEstateToken",
  "abi": [
    {
      "anonymous": false,
      "inputs": [
        {
          "indexed": true,
          "internalType": "address",
          "name": "owner",
          "type": "address"
        },
        {
          "indexed": true,
          "internalType": "address",
          "name": "approved",
          "type": "address"
        },
        {
          "indexed": true,
          "internalType": "uint256",
          "name": "tokenId",
          "type": "uint256"
        }
      ],
      "name": "Approval",
      "type": "event"
    },
    {
      "anonymous": false,
      "inputs": [
        {
          "indexed": true,
          "internalType": "address",
          "name": "owner",
          "type": "address"
        },
        {
          "indexed": true,
          "internalType": "address",
          "name": "operator",
          "type": "address"
        },
        {
          "indexed": false,
          "internalType": "bool",
          "name": "approved",
          "type": "bool"
        }
      ],
      "name": "ApprovalForAll",
      "type": "event"
    },
    {
      "anonymous": false,
      "inputs": [
        {
          "indexed": true,
          "internalType": "address",
          "name": "owner",
          "type": "address"
        },
        {
          "indexed": true,
          "internalType": "address",
          "name": "operator",
          "type": "address"
        },
        {
          "indexed": false,
          "internalType": "bool",
          "name": "approveStatus",
          "type": "bool"
        }
      ],
      "name": "LogApprovalForAll",
      "type": "event"
    },
    {
      "anonymous": false,
      "inputs": [
        {
          "indexed": true,
          "internalType": "address",
          "name": "oldOwner",
          "type": "address"
        },
        {
          "indexed": true,
          "internalType": "address",
          "name": "newOwner",
          "type": "address"
        }
      ],
      "name": "LogOwnershipTransferred",
      "type": "event"
    },
    {
      "anonymous": false,
      "inputs": [
        {
          "indexed": false,
          "internalType": "address",
          "name": "owner",
          "type": "address"
        },
        {
          "indexed": false,
          "internalType": "bool",
          "name": "status",
          "type": "bool"
        }
      ],
      "name": "LogPaused",
      "type": "event"
    },
    {
      "anonymous": false,
      "inputs": [
        {
          "indexed": true,
          "internalType": "address",
          "name": "sender",
          "type": "address"
        },
        {
          "indexed": false,
          "internalType": "uint256",
          "name": "tokenId",
          "type": "uint256"
        }
      ],
      "name": "LogTokenMinted",
      "type": "event"
    },
    {
      "anonymous": false,
      "inputs": [
        {
          "indexed": true,
          "internalType": "address",
          "name": "from",
          "type": "address"
        },
        {
          "indexed": true,
          "internalType": "address",
          "name": "to",
          "type": "address"
        },
        {
          "indexed": false,
          "internalType": "uint256",
          "name": "tokenId",
          "type": "uint256"
        }
      ],
      "name": "LogTransfer",
      "type": "event"
    },
    {
      "anonymous": false,
      "inputs": [
        {
          "indexed": false,
          "internalType": "address",
          "name": "owner",
          "type": "address"
        },
        {
          "indexed": false,
          "internalType": "bool",
          "name": "status",
          "type": "bool"
        }
      ],
      "name": "LogUnpaused",
      "type": "event"
    },
    {
      "anonymous": false,
      "inputs": [
        {
          "indexed": true,
          "internalType": "address",
          "name": "from",
          "type": "address"
        },
        {
          "indexed": true,
          "internalType": "address",
          "name": "to",
          "type": "address"
        },
        {
          "indexed": true,
          "internalType": "uint256",
          "name": "tokenId",
          "type": "uint256"
        }
      ],
      "name": "Transfer",
      "type": "event"
    },
    {
      "inputs": [
        {
          "internalType": "address",
          "name": "_to",
          "type": "address"
        },
        {
          "internalType": "uint256",
          "name": "_tokenId",
          "type": "uint256"
        }
      ],
      "name": "approve",
      "outputs": [],
      "stateMutability": "nonpayable",
      "type": "function"
    },
    {
      "inputs": [
        {
          "internalType": "address",
          "name": "owner",
          "type": "address"
        }
      ],
      "name": "balanceOf",
      "outputs": [
        {
          "internalType": "uint256",
          "name": "",
          "type": "uint256"
        }
      ],
      "stateMutability": "view",
      "type": "function"
    },
    {
      "inputs": [
        {
          "internalType": "bytes4",
          "name": "_interfaceId",
          "type": "bytes4"
        }
      ],
      "name": "checkSupportInterface",
      "outputs": [
        {
          "internalType": "bool",
          "name": "",
          "type": "bool"
        }
      ],
      "stateMutability": "view",
      "type": "function"
    },
    {
      "inputs": [
        {
          "internalType": "uint256",
          "name": "_tokenId",
          "type": "uint256"
        }
      ],
      "name": "getApproved",
      "outputs": [
        {
          "internalType": "address",
          "name": "",
          "type": "address"
        }
      ],
      "stateMutability": "view",
      "type": "function"
    },
    {
      "inputs": [],
      "name": "getBaseTokenURI",
      "outputs": [
        {
          "internalType": "string",
          "name": "",
          "type": "string"
        }
      ],
      "stateMutability": "view",
      "type": "function"
    },
    {
      "inputs": [],
      "name": "getOwner",
      "outputs": [
        {
          "internalType": "address",
          "name": "",
          "type": "address"
        }
      ],
      "stateMutability": "view",
      "type": "function"
    },
    {
      "inputs": [],
      "name": "getTokenName",
      "outputs": [
        {
          "internalType": "string",
          "name": "",
          "type": "string"
        }
      ],
      "stateMutability": "view",
      "type": "function"
    },
    {
      "inputs": [],
      "name": "getTokenSymbol",
      "outputs": [
        {
          "internalType": "string",
          "name": "",
          "type": "string"
        }
      ],
      "stateMutability": "view",
      "type": "function"
    },
    {
      "inputs": [
        {
          "internalType": "uint256",
          "name": "tokenId",
          "type": "uint256"
        }
      ],
      "name": "getTokenURI",
      "outputs": [
        {
          "internalType": "string",
          "name": "",
          "type": "string"
        }
      ],
      "stateMutability": "view",
      "type": "function"
    },
    {
      "inputs": [],
      "name": "getTotalSupply",
      "outputs": [
        {
          "internalType": "uint256",
          "name": "",
          "type": "uint256"
        }
      ],
      "stateMutability": "view",
      "type": "function"
    },
    {
      "inputs": [],
      "name": "getTotalTokenSupply",
      "outputs": [
        {
          "internalType": "uint256",
          "name": "totalSupply",
          "type": "uint256"
        }
      ],
      "stateMutability": "view",
      "type": "function"
    },
    {
      "inputs": [
        {
          "internalType": "address",
          "name": "_owner",
          "type": "address"
        },
        {
          "internalType": "address",
          "name": "_operator",
          "type": "address"
        }
      ],
      "name": "isApprovedForAll",
      "outputs": [
        {
          "internalType": "bool",
          "name": "",
          "type": "bool"
        }
      ],
      "stateMutability": "view",
      "type": "function"
    },
    {
      "inputs": [
        {
          "internalType": "address",
          "name": "_owner",
          "type": "address"
        },
        {
          "internalType": "address",
          "name": "_operator",
          "type": "address"
        }
      ],
      "name": "isApprovedForAllCheck",
      "outputs": [
        {
          "internalType": "bool",
          "name": "",
          "type": "bool"
        }
      ],
      "stateMutability": "view",
      "type": "function"
    },
    {
      "inputs": [],
      "name": "mintToken",
      "outputs": [],
      "stateMutability": "nonpayable",
      "type": "function"
    },
    {
      "inputs": [],
      "name": "name",
      "outputs": [
        {
          "internalType": "string",
          "name": "",
          "type": "string"
        }
      ],
      "stateMutability": "view",
      "type": "function"
    },
    {
      "inputs": [],
      "name": "onlyOwner",
      "outputs": [],
      "stateMutability": "view",
      "type": "function"
    },
    {
      "inputs": [
        {
          "internalType": "uint256",
          "name": "tokenId",
          "type": "uint256"
        }
      ],
      "name": "ownerOf",
      "outputs": [
        {
          "internalType": "address",
          "name": "",
          "type": "address"
        }
      ],
      "stateMutability": "view",
      "type": "function"
    },
    {
      "inputs": [],
      "name": "pauseContract",
      "outputs": [],
      "stateMutability": "nonpayable",
      "type": "function"
    },
    {
      "inputs": [],
      "name": "paused",
      "outputs": [],
      "stateMutability": "view",
      "type": "function"
    },
    {
      "inputs": [
        {
          "internalType": "address",
          "name": "from",
          "type": "address"
        },
        {
          "internalType": "address",
          "name": "to",
          "type": "address"
        },
        {
          "internalType": "uint256",
          "name": "tokenId",
          "type": "uint256"
        }
      ],
      "name": "safeTransferFrom",
      "outputs": [],
      "stateMutability": "nonpayable",
      "type": "function"
    },
    {
      "inputs": [
        {
          "internalType": "address",
          "name": "from",
          "type": "address"
        },
        {
          "internalType": "address",
          "name": "to",
          "type": "address"
        },
        {
          "internalType": "uint256",
          "name": "tokenId",
          "type": "uint256"
        },
        {
          "internalType": "bytes",
          "name": "_data",
          "type": "bytes"
        }
      ],
      "name": "safeTransferFrom",
      "outputs": [],
      "stateMutability": "nonpayable",
      "type": "function"
    },
    {
      "inputs": [
        {
          "internalType": "address",
          "name": "_to",
          "type": "address"
        },
        {
          "internalType": "bool",
          "name": "_approved",
          "type": "bool"
        }
      ],
      "name": "setApprovalForAll",
      "outputs": [],
      "stateMutability": "nonpayable",
      "type": "function"
    },
    {
      "inputs": [
        {
          "internalType": "string",
          "name": "_a",
          "type": "string"
        },
        {
          "internalType": "string",
          "name": "_b",
          "type": "string"
        }
      ],
      "name": "strConcat",
      "outputs": [
        {
          "internalType": "string",
          "name": "_concatenatedString",
          "type": "string"
        }
      ],
      "stateMutability": "pure",
      "type": "function"
    },
    {
      "inputs": [
        {
          "internalType": "bytes4",
          "name": "interfaceId",
          "type": "bytes4"
        }
      ],
      "name": "supportsInterface",
      "outputs": [
        {
          "internalType": "bool",
          "name": "",
          "type": "bool"
        }
      ],
      "stateMutability": "view",
      "type": "function"
    },
    {
      "inputs": [],
      "name": "symbol",
      "outputs": [
        {
          "internalType": "string",
          "name": "",
          "type": "string"
        }
      ],
      "stateMutability": "view",
      "type": "function"
    },
    {
      "inputs": [
        {
          "internalType": "address",
          "name": "_owner",
          "type": "address"
        },
        {
          "internalType": "uint256",
          "name": "_index",
          "type": "uint256"
        }
      ],
      "name": "tokenOfOwnerByIndex",
      "outputs": [
        {
          "internalType": "uint256",
          "name": "",
          "type": "uint256"
        }
      ],
      "stateMutability": "view",
      "type": "function"
    },
    {
      "inputs": [
        {
          "internalType": "uint256",
          "name": "tokenId",
          "type": "uint256"
        }
      ],
      "name": "tokenURI",
      "outputs": [
        {
          "internalType": "string",
          "name": "",
          "type": "string"
        }
      ],
      "stateMutability": "view",
      "type": "function"
    },
    {
      "inputs": [
        {
          "internalType": "address",
          "name": "from",
          "type": "address"
        },
        {
          "internalType": "address",
          "name": "to",
          "type": "address"
        },
        {
          "internalType": "uint256",
          "name": "tokenId",
          "type": "uint256"
        }
      ],
      "name": "transferFrom",
      "outputs": [],
      "stateMutability": "nonpayable",
      "type": "function"
    },
    {
      "inputs": [
        {
          "internalType": "address",
          "name": "_account",
          "type": "address"
        }
      ],
      "name": "transferOwnership",
      "outputs": [],
      "stateMutability": "nonpayable",
      "type": "function"
    },
    {
      "inputs": [],
      "name": "unpauseContract",
      "outputs": [],
      "stateMutability": "nonpayable",
      "type": "function"
    },
    {
      "inputs": [],
      "name": "whenNotPaused",
      "outputs": [],
      "stateMutability": "view",
      "type": "function"
    }
  ],
  "bytecode": "0x60806040523480156200001157600080fd5b506040518060400160405280600f81526020016e2932b0b622b9ba30ba32aa37b5b2b760891b8152506040518060400160405280600381526020016214915560ea1b8152506040518060600160405280603f815260200162001f0b603f913960018054336001600160a01b031991821681179092556002805490911690911790558251839083908290829082908290620000b39060039060208501906200017f565b508051620000c99060049060208401906200017f565b50620000e3935063780e9d6360e01b925050620001429050565b50508251620000fa9060119060208601906200017f565b508151620001109060129060208501906200017f565b508051620001269060139060208401906200017f565b5062000139635b5e139f60e01b62000142565b50505062000262565b6001600160e01b031980821614156200015a57600080fd5b6001600160e01b0319166000908152602081905260409020805460ff19166001179055565b8280546200018d9062000225565b90600052602060002090601f016020900481019282620001b15760008555620001fc565b82601f10620001cc57805160ff1916838001178555620001fc565b82800160010185558215620001fc579182015b82811115620001fc578251825591602001919060010190620001df565b506200020a9291506200020e565b5090565b5b808211156200020a57600081556001016200020f565b600181811c908216806200023a57607f821691505b602082108114156200025c57634e487b7160e01b600052602260045260246000fd5b50919050565b611c9980620002726000396000f3fe608060405234801561001057600080fd5b50600436106101e55760003560e01c80636352211e1161010f578063b88d4fde116100a2578063e985e9c511610071578063e985e9c5146103df578063f1850af8146103f2578063f2fde38b146103fa578063ff74927b1461040d57600080fd5b8063b88d4fde146103a9578063bdc32be0146103bc578063c4e41b22146103c4578063c87b56dd146103cc57600080fd5b806395d89b41116100de57806395d89b411461037357806398d77dc01461037b578063a22cb4651461038e578063b33712c5146103a157600080fd5b80636352211e1461033457806370a0823114610347578063862b092b1461035a578063893d20e81461036257600080fd5b80632004ffd91161018757806342842e0e1161015657806342842e0e14610309578063439766ce1461031c5780635c2dc4f0146103245780635c975abb1461032c57600080fd5b80632004ffd9146102c857806323b872dd146102d05780632f745c59146102e35780633bb3a24d146102f657600080fd5b806306fdde03116101c357806306fdde0314610255578063081812fc1461026a578063095ea7b3146102ab5780631036e0a8146102c057600080fd5b806301ffc9a7146101ea57806302ccc24114610212578063047087cc1461023f575b600080fd5b6101fd6101f836600461170f565b610420565b60405190151581526020015b60405180910390f35b6101fd61022036600461170f565b6001600160e01b03191660009081526020819052604090205460ff1690565b610247610472565b604051908152602001610209565b61025d610481565b6040516102099190611784565b610293610278366004611797565b6000908152600b60205260409020546001600160a01b031690565b6040516001600160a01b039091168152602001610209565b6102be6102b93660046117cc565b610513565b005b6102be61063b565b6102be61068a565b6102be6102de3660046117f6565b610712565b6102476102f13660046117cc565b610748565b61025d610304366004611797565b6107ce565b6102be6103173660046117f6565b6108ca565b6102be6108e5565b6102be610997565b6102be6109e6565b610293610342366004611797565b610a30565b610247610355366004611832565b610aa7565b61025d610b2e565b6001546001600160a01b0316610293565b61025d610b3d565b6101fd61038936600461184d565b610b4c565b6102be61039c366004611880565b610b5f565b6102be610be2565b6102be6103b7366004611948565b610c8f565b61025d610cc7565b610247610cd6565b61025d6103da366004611797565b610ce1565b6101fd6103ed36600461184d565b610dc8565b61025d610df6565b6102be610408366004611832565b610e05565b61025d61041b3660046119e4565b610e4d565b60006001600160e01b031982166380ac58cd60e01b148061045157506001600160e01b03198216635b5e139f60e01b145b8061046c57506301ffc9a760e01b6001600160e01b03198316145b92915050565b600061047c610cd6565b905090565b60606003805461049090611a48565b80601f01602080910402602001604051908101604052809291908181526020018280546104bc90611a48565b80156105095780601f106104de57610100808354040283529160200191610509565b820191906000526020600020905b8154815290600101906020018083116104ec57829003601f168201915b5050505050905090565b6000818152600a60205260409020546001600160a01b03838116911614156105825760405162461bcd60e51b815260206004820152601c60248201527f6d757374206e6f7420626520617070726f76656420616464726573730000000060448201526064015b60405180910390fd5b6002546001600160a01b03163314806105a057506105a03383610dc8565b6105e25760405162461bcd60e51b815260206004820152601360248201527218d85b1b195c881b9bdd08185c1c1c9bdd9959606a1b6044820152606401610579565b6000818152600b602052604080822080546001600160a01b0319166001600160a01b0386169081179091559051839233917f8c5be1e5ebec7d5bd14f71427d1e84f3dd0314c0f7b2291e5b200ac8c7c3b9259190a45050565b6001546001600160a01b031633146106885760405162461bcd60e51b815260206004820152601060248201526f31b0b63632b9103737ba1037bbb732b960811b6044820152606401610579565b565b6000610694610cd6565b905061069f33610fa0565b336000908152600d602090815260408083208054858552600e84528285208190556001808201835591855283852001859055600f80548686526010909452918420839055820181559091527f8d1108e10bcb7c27dddfc02ed9d693a074039d026cf4ea4240b40f7d581ac8020155565b50565b61071c3382611052565b6107385760405162461bcd60e51b815260040161057990611a83565b610743838383611129565b505050565b600061075383610aa7565b82106107915760405162461bcd60e51b815260206004820152600d60248201526c0d2dcecc2d8d2c840d2dcc8caf609b1b6044820152606401610579565b6001600160a01b0383166000908152600d602052604090208054839081106107bb576107bb611ad4565b9060005260206000200154905092915050565b6000818152600560205260409020546060906001600160a01b031661082c5760405162461bcd60e51b81526020600482015260146024820152731d1bdad95b88191bd95cc81b9bdd08195e1a5cdd60621b6044820152606401610579565b6000828152601460205260409020805461084590611a48565b80601f016020809104026020016040519081016040528092919081815260200182805461087190611a48565b80156108be5780601f10610893576101008083540402835291602001916108be565b820191906000526020600020905b8154815290600101906020018083116108a157829003601f168201915b50505050509050919050565b61074383838360405180602001604052806000815250610c8f565b6108ed61063b565b600154600160a01b900460ff161561093d5760405162461bcd60e51b81526020600482015260136024820152726e6f7420696e2070617573656420737461746560681b6044820152606401610579565b6001805460ff60a01b1916600160a01b90811791829055604080513381529190920460ff16151560208201527f9885b484a3068de5c38fb9073ed8489371efc9514b9a174a9cd1df5326d2e45491015b60405180910390a1565b600154600160a01b900460ff16156106885760405162461bcd60e51b81526020600482015260126024820152711b5d5cdd081b9bdd081899481c185d5cd95960721b6044820152606401610579565b600154600160a01b900460ff166106885760405162461bcd60e51b815260206004820152600e60248201526d1b5d5cdd081899481c185d5cd95960921b6044820152606401610579565b6000818152600560205260408120546001600160a01b03168061046c5760405162461bcd60e51b815260206004820152602960248201527f4552433732313a206f776e657220717565727920666f72206e6f6e657869737460448201526832b73a103a37b5b2b760b91b6064820152608401610579565b60006001600160a01b038216610b125760405162461bcd60e51b815260206004820152602a60248201527f4552433732313a2062616c616e636520717565727920666f7220746865207a65604482015269726f206164647265737360b01b6064820152608401610579565b506001600160a01b031660009081526006602052604090205490565b60606011805461049090611a48565b60606004805461049090611a48565b6000610b588383610dc8565b9392505050565b6001600160a01b038216331415610b7557600080fd5b336000818152600c602090815260408083206001600160a01b03871680855290835292819020805460ff191686151590811790915590519081529192917f17307eab39ab6107e8899845ad3d59bd9653f200f220920489ca2b5937696c3191015b60405180910390a35050565b610bea61063b565b60018054600160a01b900460ff16151514610c3f5760405162461bcd60e51b81526020600482015260156024820152746e6f7420696e20756e70617573656420737461746560581b6044820152606401610579565b6001805460ff60a01b19169081905560408051338152600160a01b90920460ff16151560208301527fd0c0d0bdd7ffcf7b8e5922aa102f0dfc3e6cd7378f774bd623a7348b13c86289910161098d565b610c993383611052565b610cb55760405162461bcd60e51b815260040161057990611a83565b610cc1848484846112c9565b50505050565b60606013805461049090611a48565b600061047c60095490565b6000818152600560205260409020546060906001600160a01b0316610d605760405162461bcd60e51b815260206004820152602f60248201527f4552433732314d657461646174613a2055524920717565727920666f72206e6f60448201526e3732bc34b9ba32b73a103a37b5b2b760891b6064820152608401610579565b6000610d7760408051602081019091526000815290565b90506000815111610d975760405180602001604052806000815250610b58565b80610da1846112fc565b604051602001610db2929190611aea565b6040516020818303038152906040529392505050565b6001600160a01b039182166000908152600c6020908152604080832093909416825291909152205460ff1690565b60606012805461049090611a48565b610e0d61063b565b506001546040516001600160a01b0390911690819033907fdb6d05f3295cede580affa301a1eb5297528f3b3f6a56b075887ce6f61c45f2190600090a350565b8051825160609184918491600091610e659190611b2f565b67ffffffffffffffff811115610e7d57610e7d6118bc565b6040519080825280601f01601f191660200182016040528015610ea7576020820181803683370190505b509050806000805b8551811015610f1f57858181518110610eca57610eca611ad4565b01602001516001600160f81b0319168383610ee481611b47565b945081518110610ef657610ef6611ad4565b60200101906001600160f81b031916908160001a90535080610f1781611b47565b915050610eaf565b5060005b8451811015610f9357848181518110610f3e57610f3e611ad4565b01602001516001600160f81b0319168383610f5881611b47565b945081518110610f6a57610f6a611ad4565b60200101906001600160f81b031916908160001a90535080610f8b81611b47565b915050610f23565b5090979650505050505050565b6001600160a01b038116610fef5760405162461bcd60e51b815260206004820152601660248201527563616e6e6f74206265207a65726f206164647265737360501b6044820152606401610579565b6000610ffa60095490565b905061100a600980546001019055565b61101482826113fa565b6040518181526001600160a01b038316906000907f0a85107a334eae0d22d21cdf13af0f8e8125039ec60baaa843d2c4c5b068017490602001610bd6565b6000818152600560205260408120546001600160a01b03166110cb5760405162461bcd60e51b815260206004820152602c60248201527f4552433732313a206f70657261746f7220717565727920666f72206e6f6e657860448201526b34b9ba32b73a103a37b5b2b760a11b6064820152608401610579565b60006110d683610a30565b9050806001600160a01b0316846001600160a01b0316148061111157506000838152600b60205260409020546001600160a01b038581169116145b8061112157506111218185610dc8565b949350505050565b826001600160a01b031661113c82610a30565b6001600160a01b0316146111a45760405162461bcd60e51b815260206004820152602960248201527f4552433732313a207472616e73666572206f6620746f6b656e2074686174206960448201526839903737ba1037bbb760b91b6064820152608401610579565b6001600160a01b0382166112065760405162461bcd60e51b8152602060048201526024808201527f4552433732313a207472616e7366657220746f20746865207a65726f206164646044820152637265737360e01b6064820152608401610579565b611211600082611418565b6001600160a01b038316600090815260066020526040812080546001929061123a908490611b62565b90915550506001600160a01b0382166000908152600660205260408120805460019290611268908490611b2f565b909155505060008181526005602052604080822080546001600160a01b0319166001600160a01b0386811691821790925591518493918716917fddf252ad1be2c89b69c2b068fc378daa952ba7f163c4a11628f55a4df523b3ef91a4505050565b6112d4848484611129565b6112e084848484611486565b610cc15760405162461bcd60e51b815260040161057990611b79565b6060816113205750506040805180820190915260018152600360fc1b602082015290565b8160005b811561134a578061133481611b47565b91506113439050600a83611be1565b9150611324565b60008167ffffffffffffffff811115611365576113656118bc565b6040519080825280601f01601f19166020018201604052801561138f576020820181803683370190505b5090505b8415611121576113a4600183611b62565b91506113b1600a86611bf5565b6113bc906030611b2f565b60f81b8183815181106113d1576113d1611ad4565b60200101906001600160f81b031916908160001a9053506113f3600a86611be1565b9450611393565b611414828260405180602001604052806000815250611584565b5050565b600081815260076020526040902080546001600160a01b0319166001600160a01b038416908117909155819061144d82610a30565b6001600160a01b03167f8c5be1e5ebec7d5bd14f71427d1e84f3dd0314c0f7b2291e5b200ac8c7c3b92560405160405180910390a45050565b60006001600160a01b0384163b1561157957604051630a85bd0160e11b81526001600160a01b0385169063150b7a02906114ca903390899088908890600401611c09565b6020604051808303816000875af1925050508015611505575060408051601f3d908101601f1916820190925261150291810190611c46565b60015b61155f573d808015611533576040519150601f19603f3d011682016040523d82523d6000602084013e611538565b606091505b5080516115575760405162461bcd60e51b815260040161057990611b79565b805181602001fd5b6001600160e01b031916630a85bd0160e11b149050611121565b506001949350505050565b61158e83836115b7565b61159b6000848484611486565b6107435760405162461bcd60e51b815260040161057990611b79565b6001600160a01b03821661160d5760405162461bcd60e51b815260206004820181905260248201527f4552433732313a206d696e7420746f20746865207a65726f20616464726573736044820152606401610579565b6000818152600560205260409020546001600160a01b0316156116725760405162461bcd60e51b815260206004820152601c60248201527f4552433732313a20746f6b656e20616c7265616479206d696e746564000000006044820152606401610579565b6001600160a01b038216600090815260066020526040812080546001929061169b908490611b2f565b909155505060008181526005602052604080822080546001600160a01b0319166001600160a01b03861690811790915590518392907fddf252ad1be2c89b69c2b068fc378daa952ba7f163c4a11628f55a4df523b3ef908290a45050565b6001600160e01b03198116811461070f57600080fd5b60006020828403121561172157600080fd5b8135610b58816116f9565b60005b8381101561174757818101518382015260200161172f565b83811115610cc15750506000910152565b6000815180845261177081602086016020860161172c565b601f01601f19169290920160200192915050565b602081526000610b586020830184611758565b6000602082840312156117a957600080fd5b5035919050565b80356001600160a01b03811681146117c757600080fd5b919050565b600080604083850312156117df57600080fd5b6117e8836117b0565b946020939093013593505050565b60008060006060848603121561180b57600080fd5b611814846117b0565b9250611822602085016117b0565b9150604084013590509250925092565b60006020828403121561184457600080fd5b610b58826117b0565b6000806040838503121561186057600080fd5b611869836117b0565b9150611877602084016117b0565b90509250929050565b6000806040838503121561189357600080fd5b61189c836117b0565b9150602083013580151581146118b157600080fd5b809150509250929050565b634e487b7160e01b600052604160045260246000fd5b600067ffffffffffffffff808411156118ed576118ed6118bc565b604051601f8501601f19908116603f01168101908282118183101715611915576119156118bc565b8160405280935085815286868601111561192e57600080fd5b858560208301376000602087830101525050509392505050565b6000806000806080858703121561195e57600080fd5b611967856117b0565b9350611975602086016117b0565b925060408501359150606085013567ffffffffffffffff81111561199857600080fd5b8501601f810187136119a957600080fd5b6119b8878235602084016118d2565b91505092959194509250565b600082601f8301126119d557600080fd5b610b58838335602085016118d2565b600080604083850312156119f757600080fd5b823567ffffffffffffffff80821115611a0f57600080fd5b611a1b868387016119c4565b93506020850135915080821115611a3157600080fd5b50611a3e858286016119c4565b9150509250929050565b600181811c90821680611a5c57607f821691505b60208210811415611a7d57634e487b7160e01b600052602260045260246000fd5b50919050565b60208082526031908201527f4552433732313a207472616e736665722063616c6c6572206973206e6f74206f6040820152701ddb995c881b9bdc88185c1c1c9bdd9959607a1b606082015260800190565b634e487b7160e01b600052603260045260246000fd5b60008351611afc81846020880161172c565b835190830190611b1081836020880161172c565b01949350505050565b634e487b7160e01b600052601160045260246000fd5b60008219821115611b4257611b42611b19565b500190565b6000600019821415611b5b57611b5b611b19565b5060010190565b600082821015611b7457611b74611b19565b500390565b60208082526032908201527f4552433732313a207472616e7366657220746f206e6f6e20455243373231526560408201527131b2b4bb32b91034b6b83632b6b2b73a32b960711b606082015260800190565b634e487b7160e01b600052601260045260246000fd5b600082611bf057611bf0611bcb565b500490565b600082611c0457611c04611bcb565b500690565b6001600160a01b0385811682528416602082015260408101839052608060608201819052600090611c3c90830184611758565b9695505050505050565b600060208284031215611c5857600080fd5b8151610b58816116f956fea2646970667358221220552c49f8189dd01b1a66ebdb4c097839f93367d34a072f737f430b116eabac8764736f6c634300080a003368747470733a2f2f73332d75732d776573742d322e616d617a6f6e6177732e636f6d2f756461636974792d626c6f636b636861696e2f63617073746f6e652f",
  "immutableReferences": {},
  "source": "// SPDX-License-Identifier: MIT\n\npragma solidity >=0.5.0 <0.9.0;\n  \nimport './MyERC721Metadata.sol';\n\n// Create CustomERC721Token contract that inherits from the ERC721Metadata contract. You can name this contract as you please.\n// 1) Pass in appropriate values for the inherited ERC721Metadata contract\n//     - make the base token uri: https://s3-us-west-2.amazonaws.com/udacity-blockchain/capstone/\n// 2) create a public mint() that does the following:\n//     -can only be executed by the contract owner\n//     -takes in a 'to' address, tokenId, and tokenURI as parameters\n//     -returns a true boolean upon completion of the function\n//     -calls the superclass mint and setTokenURI functions\ncontract RealEstateToken is \nMyERC721Metadata('RealEstateToken', 'RET', 'https://s3-us-west-2.amazonaws.com/udacity-blockchain/capstone/') {\n\n  event LogTokenMinted(address indexed sender, uint256 tokenId);\n  modifier isOwner()  {\n    onlyOwner();\n    _;\n  }\n   \n  function mint() internal isOwner returns(bool) {\n    uint256 tokenId = getTotalSupply();\n    mintToken();\n    emit LogTokenMinted(msg.sender, tokenId);\n    _setTokenURI(tokenId);\n    return true;\n  }\n\n}\n   ",
  "sourcePath": "/Users/dav/Desktop/capstone-final/real-estate-marketplace/contracts/RealEstateToken.sol",
  "compiler": {
    "name": "solc",
    "version": "0.8.10+commit.fc410830.Emscripten.clang"
  },
  "schemaVersion": "3.4.3",
  "updatedAt": "2021-12-20T09:54:02.272Z",
  "devdoc": {
    "kind": "dev",
    "methods": {
      "approve(address,uint256)": {
        "details": "approve another address to transfer the given tokenId"
      },
      "balanceOf(address)": {
        "details": "See {IERC721-balanceOf}."
      },
      "checkSupportInterface(bytes4)": {
        "details": "implement supportsInterface(bytes4) using a lookup table"
      },
      "isApprovedForAll(address,address)": {
        "details": "Tells whether an operator is approved by a given owner",
        "params": {
          "_operator": "operator address which you want to query the approval of",
          "_owner": "owner address which you want to query the approval of"
        },
        "returns": {
          "_0": "bool whether the given operator is approved by the given owner"
        }
      },
      "mintToken()": {
        "details": "Internal function to mint a new token Reverts if the given token ID already exists"
      },
      "name()": {
        "details": "See {IERC721Metadata-name}."
      },
      "ownerOf(uint256)": {
        "details": "See {IERC721-ownerOf}."
      },
      "safeTransferFrom(address,address,uint256)": {
        "details": "See {IERC721-safeTransferFrom}."
      },
      "safeTransferFrom(address,address,uint256,bytes)": {
        "details": "See {IERC721-safeTransferFrom}."
      },
      "setApprovalForAll(address,bool)": {
        "details": "Sets or unsets the approval of a given operator An operator is allowed to transfer all tokens of the sender on their behalf",
        "params": {
          "_to": "operator address to set the approval"
        }
      },
      "supportsInterface(bytes4)": {
        "details": "See {IERC165-supportsInterface}."
      },
      "symbol()": {
        "details": "See {IERC721Metadata-symbol}."
      },
      "tokenOfOwnerByIndex(address,uint256)": {
        "details": "Gets the token ID at a given index of the tokens list of the requested owner",
        "params": {
          "_index": "uint256 representing the index to be accessed of the requested tokens list",
          "_owner": "address owning the tokens list to be accessed"
        },
        "returns": {
          "_0": "uint256 token ID at the given index of the tokens list owned by the requested address"
        }
      },
      "tokenURI(uint256)": {
        "details": "See {IERC721Metadata-tokenURI}."
      },
      "transferFrom(address,address,uint256)": {
        "details": "See {IERC721-transferFrom}."
      }
    },
    "version": 1
  },
  "userdoc": {
    "kind": "user",
    "methods": {},
    "version": 1
  }
}