{
  "contractName": "SolnSquareVerifier",
  "abi": [
    {
      "inputs": [
        {
          "internalType": "address",
          "name": "_squareVerifierAddress",
          "type": "address"
        }
      ],
      "stateMutability": "nonpayable",
      "type": "constructor"
    },
    {
      "anonymous": false,
      "inputs": [
        {
          "indexed": true,
          "internalType": "address",
          "name": "owner",
          "type": "address"
        },
        {
          "indexed": true,
          "internalType": "address",
          "name": "approved",
          "type": "address"
        },
        {
          "indexed": true,
          "internalType": "uint256",
          "name": "tokenId",
          "type": "uint256"
        }
      ],
      "name": "Approval",
      "type": "event"
    },
    {
      "anonymous": false,
      "inputs": [
        {
          "indexed": true,
          "internalType": "address",
          "name": "owner",
          "type": "address"
        },
        {
          "indexed": true,
          "internalType": "address",
          "name": "operator",
          "type": "address"
        },
        {
          "indexed": false,
          "internalType": "bool",
          "name": "approved",
          "type": "bool"
        }
      ],
      "name": "ApprovalForAll",
      "type": "event"
    },
    {
      "anonymous": false,
      "inputs": [
        {
          "indexed": true,
          "internalType": "address",
          "name": "owner",
          "type": "address"
        },
        {
          "indexed": true,
          "internalType": "address",
          "name": "operator",
          "type": "address"
        },
        {
          "indexed": false,
          "internalType": "bool",
          "name": "approveStatus",
          "type": "bool"
        }
      ],
      "name": "LogApprovalForAll",
      "type": "event"
    },
    {
      "anonymous": false,
      "inputs": [
        {
          "indexed": true,
          "internalType": "uint256",
          "name": "index",
          "type": "uint256"
        },
        {
          "indexed": true,
          "internalType": "address",
          "name": "minter",
          "type": "address"
        },
        {
          "indexed": true,
          "internalType": "bytes32",
          "name": "mintHash",
          "type": "bytes32"
        },
        {
          "indexed": false,
          "internalType": "uint256",
          "name": "status",
          "type": "uint256"
        }
      ],
      "name": "LogMintStatus",
      "type": "event"
    },
    {
      "anonymous": false,
      "inputs": [
        {
          "indexed": true,
          "internalType": "address",
          "name": "oldOwner",
          "type": "address"
        },
        {
          "indexed": true,
          "internalType": "address",
          "name": "newOwner",
          "type": "address"
        }
      ],
      "name": "LogOwnershipTransferred",
      "type": "event"
    },
    {
      "anonymous": false,
      "inputs": [
        {
          "indexed": false,
          "internalType": "address",
          "name": "owner",
          "type": "address"
        },
        {
          "indexed": false,
          "internalType": "bool",
          "name": "status",
          "type": "bool"
        }
      ],
      "name": "LogPaused",
      "type": "event"
    },
    {
      "anonymous": false,
      "inputs": [
        {
          "indexed": true,
          "internalType": "uint256",
          "name": "index",
          "type": "uint256"
        },
        {
          "indexed": true,
          "internalType": "address",
          "name": "minter",
          "type": "address"
        },
        {
          "indexed": false,
          "internalType": "uint256",
          "name": "status",
          "type": "uint256"
        }
      ],
      "name": "LogSolutionAdded",
      "type": "event"
    },
    {
      "anonymous": false,
      "inputs": [
        {
          "indexed": true,
          "internalType": "address",
          "name": "sender",
          "type": "address"
        },
        {
          "indexed": false,
          "internalType": "uint256",
          "name": "tokenId",
          "type": "uint256"
        }
      ],
      "name": "LogTokenMinted",
      "type": "event"
    },
    {
      "anonymous": false,
      "inputs": [
        {
          "indexed": true,
          "internalType": "address",
          "name": "from",
          "type": "address"
        },
        {
          "indexed": true,
          "internalType": "address",
          "name": "to",
          "type": "address"
        },
        {
          "indexed": false,
          "internalType": "uint256",
          "name": "tokenId",
          "type": "uint256"
        }
      ],
      "name": "LogTransfer",
      "type": "event"
    },
    {
      "anonymous": false,
      "inputs": [
        {
          "indexed": false,
          "internalType": "address",
          "name": "owner",
          "type": "address"
        },
        {
          "indexed": false,
          "internalType": "bool",
          "name": "status",
          "type": "bool"
        }
      ],
      "name": "LogUnpaused",
      "type": "event"
    },
    {
      "anonymous": false,
      "inputs": [
        {
          "indexed": true,
          "internalType": "address",
          "name": "from",
          "type": "address"
        },
        {
          "indexed": true,
          "internalType": "address",
          "name": "to",
          "type": "address"
        },
        {
          "indexed": true,
          "internalType": "uint256",
          "name": "tokenId",
          "type": "uint256"
        }
      ],
      "name": "Transfer",
      "type": "event"
    },
    {
      "inputs": [
        {
          "internalType": "address",
          "name": "_to",
          "type": "address"
        },
        {
          "internalType": "uint256",
          "name": "_tokenId",
          "type": "uint256"
        }
      ],
      "name": "approve",
      "outputs": [],
      "stateMutability": "nonpayable",
      "type": "function"
    },
    {
      "inputs": [
        {
          "internalType": "address",
          "name": "owner",
          "type": "address"
        }
      ],
      "name": "balanceOf",
      "outputs": [
        {
          "internalType": "uint256",
          "name": "",
          "type": "uint256"
        }
      ],
      "stateMutability": "view",
      "type": "function",
      "constant": true
    },
    {
      "inputs": [
        {
          "internalType": "bytes4",
          "name": "_interfaceId",
          "type": "bytes4"
        }
      ],
      "name": "checkSupportInterface",
      "outputs": [
        {
          "internalType": "bool",
          "name": "",
          "type": "bool"
        }
      ],
      "stateMutability": "view",
      "type": "function",
      "constant": true
    },
    {
      "inputs": [
        {
          "internalType": "uint256",
          "name": "_tokenId",
          "type": "uint256"
        }
      ],
      "name": "getApproved",
      "outputs": [
        {
          "internalType": "address",
          "name": "",
          "type": "address"
        }
      ],
      "stateMutability": "view",
      "type": "function",
      "constant": true
    },
    {
      "inputs": [],
      "name": "getBaseTokenURI",
      "outputs": [
        {
          "internalType": "string",
          "name": "",
          "type": "string"
        }
      ],
      "stateMutability": "view",
      "type": "function",
      "constant": true
    },
    {
      "inputs": [],
      "name": "getOwner",
      "outputs": [
        {
          "internalType": "address",
          "name": "",
          "type": "address"
        }
      ],
      "stateMutability": "view",
      "type": "function",
      "constant": true
    },
    {
      "inputs": [],
      "name": "getTokenName",
      "outputs": [
        {
          "internalType": "string",
          "name": "",
          "type": "string"
        }
      ],
      "stateMutability": "view",
      "type": "function",
      "constant": true
    },
    {
      "inputs": [],
      "name": "getTokenSymbol",
      "outputs": [
        {
          "internalType": "string",
          "name": "",
          "type": "string"
        }
      ],
      "stateMutability": "view",
      "type": "function",
      "constant": true
    },
    {
      "inputs": [
        {
          "internalType": "uint256",
          "name": "tokenId",
          "type": "uint256"
        }
      ],
      "name": "getTokenURI",
      "outputs": [
        {
          "internalType": "string",
          "name": "",
          "type": "string"
        }
      ],
      "stateMutability": "view",
      "type": "function",
      "constant": true
    },
    {
      "inputs": [],
      "name": "getTotalSupply",
      "outputs": [
        {
          "internalType": "uint256",
          "name": "",
          "type": "uint256"
        }
      ],
      "stateMutability": "view",
      "type": "function",
      "constant": true
    },
    {
      "inputs": [],
      "name": "getTotalTokenSupply",
      "outputs": [
        {
          "internalType": "uint256",
          "name": "totalSupply",
          "type": "uint256"
        }
      ],
      "stateMutability": "view",
      "type": "function",
      "constant": true
    },
    {
      "inputs": [
        {
          "internalType": "address",
          "name": "_owner",
          "type": "address"
        },
        {
          "internalType": "address",
          "name": "_operator",
          "type": "address"
        }
      ],
      "name": "isApprovedForAll",
      "outputs": [
        {
          "internalType": "bool",
          "name": "",
          "type": "bool"
        }
      ],
      "stateMutability": "view",
      "type": "function",
      "constant": true
    },
    {
      "inputs": [
        {
          "internalType": "address",
          "name": "_owner",
          "type": "address"
        },
        {
          "internalType": "address",
          "name": "_operator",
          "type": "address"
        }
      ],
      "name": "isApprovedForAllCheck",
      "outputs": [
        {
          "internalType": "bool",
          "name": "",
          "type": "bool"
        }
      ],
      "stateMutability": "view",
      "type": "function",
      "constant": true
    },
    {
      "inputs": [],
      "name": "mintToken",
      "outputs": [],
      "stateMutability": "nonpayable",
      "type": "function"
    },
    {
      "inputs": [],
      "name": "name",
      "outputs": [
        {
          "internalType": "string",
          "name": "",
          "type": "string"
        }
      ],
      "stateMutability": "view",
      "type": "function",
      "constant": true
    },
    {
      "inputs": [],
      "name": "onlyOwner",
      "outputs": [],
      "stateMutability": "view",
      "type": "function",
      "constant": true
    },
    {
      "inputs": [
        {
          "internalType": "uint256",
          "name": "tokenId",
          "type": "uint256"
        }
      ],
      "name": "ownerOf",
      "outputs": [
        {
          "internalType": "address",
          "name": "",
          "type": "address"
        }
      ],
      "stateMutability": "view",
      "type": "function",
      "constant": true
    },
    {
      "inputs": [],
      "name": "pauseContract",
      "outputs": [],
      "stateMutability": "nonpayable",
      "type": "function"
    },
    {
      "inputs": [],
      "name": "paused",
      "outputs": [],
      "stateMutability": "view",
      "type": "function",
      "constant": true
    },
    {
      "inputs": [
        {
          "internalType": "address",
          "name": "from",
          "type": "address"
        },
        {
          "internalType": "address",
          "name": "to",
          "type": "address"
        },
        {
          "internalType": "uint256",
          "name": "tokenId",
          "type": "uint256"
        }
      ],
      "name": "safeTransferFrom",
      "outputs": [],
      "stateMutability": "nonpayable",
      "type": "function"
    },
    {
      "inputs": [
        {
          "internalType": "address",
          "name": "from",
          "type": "address"
        },
        {
          "internalType": "address",
          "name": "to",
          "type": "address"
        },
        {
          "internalType": "uint256",
          "name": "tokenId",
          "type": "uint256"
        },
        {
          "internalType": "bytes",
          "name": "_data",
          "type": "bytes"
        }
      ],
      "name": "safeTransferFrom",
      "outputs": [],
      "stateMutability": "nonpayable",
      "type": "function"
    },
    {
      "inputs": [
        {
          "internalType": "address",
          "name": "_to",
          "type": "address"
        },
        {
          "internalType": "bool",
          "name": "_approved",
          "type": "bool"
        }
      ],
      "name": "setApprovalForAll",
      "outputs": [],
      "stateMutability": "nonpayable",
      "type": "function"
    },
    {
      "inputs": [
        {
          "internalType": "string",
          "name": "_a",
          "type": "string"
        },
        {
          "internalType": "string",
          "name": "_b",
          "type": "string"
        }
      ],
      "name": "strConcat",
      "outputs": [
        {
          "internalType": "string",
          "name": "_concatenatedString",
          "type": "string"
        }
      ],
      "stateMutability": "pure",
      "type": "function",
      "constant": true
    },
    {
      "inputs": [
        {
          "internalType": "bytes4",
          "name": "interfaceId",
          "type": "bytes4"
        }
      ],
      "name": "supportsInterface",
      "outputs": [
        {
          "internalType": "bool",
          "name": "",
          "type": "bool"
        }
      ],
      "stateMutability": "view",
      "type": "function",
      "constant": true
    },
    {
      "inputs": [],
      "name": "symbol",
      "outputs": [
        {
          "internalType": "string",
          "name": "",
          "type": "string"
        }
      ],
      "stateMutability": "view",
      "type": "function",
      "constant": true
    },
    {
      "inputs": [
        {
          "internalType": "uint256",
          "name": "",
          "type": "uint256"
        }
      ],
      "name": "tokenIdToKey",
      "outputs": [
        {
          "internalType": "bytes32",
          "name": "",
          "type": "bytes32"
        }
      ],
      "stateMutability": "view",
      "type": "function",
      "constant": true
    },
    {
      "inputs": [
        {
          "internalType": "address",
          "name": "_owner",
          "type": "address"
        },
        {
          "internalType": "uint256",
          "name": "_index",
          "type": "uint256"
        }
      ],
      "name": "tokenOfOwnerByIndex",
      "outputs": [
        {
          "internalType": "uint256",
          "name": "",
          "type": "uint256"
        }
      ],
      "stateMutability": "view",
      "type": "function",
      "constant": true
    },
    {
      "inputs": [
        {
          "internalType": "uint256",
          "name": "tokenId",
          "type": "uint256"
        }
      ],
      "name": "tokenURI",
      "outputs": [
        {
          "internalType": "string",
          "name": "",
          "type": "string"
        }
      ],
      "stateMutability": "view",
      "type": "function",
      "constant": true
    },
    {
      "inputs": [
        {
          "internalType": "address",
          "name": "from",
          "type": "address"
        },
        {
          "internalType": "address",
          "name": "to",
          "type": "address"
        },
        {
          "internalType": "uint256",
          "name": "tokenId",
          "type": "uint256"
        }
      ],
      "name": "transferFrom",
      "outputs": [],
      "stateMutability": "nonpayable",
      "type": "function"
    },
    {
      "inputs": [
        {
          "internalType": "address",
          "name": "_account",
          "type": "address"
        }
      ],
      "name": "transferOwnership",
      "outputs": [],
      "stateMutability": "nonpayable",
      "type": "function"
    },
    {
      "inputs": [],
      "name": "unpauseContract",
      "outputs": [],
      "stateMutability": "nonpayable",
      "type": "function"
    },
    {
      "inputs": [],
      "name": "whenNotPaused",
      "outputs": [],
      "stateMutability": "view",
      "type": "function",
      "constant": true
    },
    {
      "inputs": [
        {
          "internalType": "uint256[2]",
          "name": "_a",
          "type": "uint256[2]"
        },
        {
          "internalType": "uint256[2][2]",
          "name": "_b",
          "type": "uint256[2][2]"
        },
        {
          "internalType": "uint256[2]",
          "name": "_c",
          "type": "uint256[2]"
        },
        {
          "internalType": "uint256[2]",
          "name": "_inputs",
          "type": "uint256[2]"
        }
      ],
      "name": "addSolution",
      "outputs": [],
      "stateMutability": "nonpayable",
      "type": "function"
    },
    {
      "inputs": [
        {
          "internalType": "uint256[2]",
          "name": "_a",
          "type": "uint256[2]"
        },
        {
          "internalType": "uint256[2][2]",
          "name": "_b",
          "type": "uint256[2][2]"
        },
        {
          "internalType": "uint256[2]",
          "name": "_c",
          "type": "uint256[2]"
        },
        {
          "internalType": "uint256[2]",
          "name": "_inputs",
          "type": "uint256[2]"
        }
      ],
      "name": "mintNFT",
      "outputs": [],
      "stateMutability": "nonpayable",
      "type": "function"
    },
    {
      "inputs": [
        {
          "internalType": "uint256",
          "name": "_tokenId",
          "type": "uint256"
        }
      ],
      "name": "getSolutionDetails",
      "outputs": [
        {
          "internalType": "uint256",
          "name": "index",
          "type": "uint256"
        },
        {
          "internalType": "address",
          "name": "minter",
          "type": "address"
        },
        {
          "internalType": "string",
          "name": "status",
          "type": "string"
        }
      ],
      "stateMutability": "view",
      "type": "function",
      "constant": true
    }
  ],
  "bytecode": "0x60806040523480156200001157600080fd5b50604051620029cc380380620029cc833981016040819052620000349162000268565b6040518060400160405280600f81526020016e2932b0b622b9ba30ba32aa37b5b2b760891b8152506040518060400160405280600381526020016214915560ea1b8152506040518060600160405280603f81526020016200298d603f913960018054336001600160a01b031991821681179092556002805490911690911790558251839083908290829082908290620000d5906003906020850190620001c2565b508051620000eb906004906020840190620001c2565b5062000105935063780e9d6360e01b925050620001859050565b505082516200011c906011906020860190620001c2565b50815162000132906012906020850190620001c2565b50805162000148906013906020840190620001c2565b506200015b635b5e139f60e01b62000185565b5050601580546001600160a01b0319166001600160a01b03939093169290921790915550620002d7565b6001600160e01b031980821614156200019d57600080fd5b6001600160e01b0319166000908152602081905260409020805460ff19166001179055565b828054620001d0906200029a565b90600052602060002090601f016020900481019282620001f457600085556200023f565b82601f106200020f57805160ff19168380011785556200023f565b828001600101855582156200023f579182015b828111156200023f57825182559160200191906001019062000222565b506200024d92915062000251565b5090565b5b808211156200024d576000815560010162000252565b6000602082840312156200027b57600080fd5b81516001600160a01b03811681146200029357600080fd5b9392505050565b600181811c90821680620002af57607f821691505b60208210811415620002d157634e487b7160e01b600052602260045260246000fd5b50919050565b6126a680620002e76000396000f3fe608060405234801561001057600080fd5b50600436106102115760003560e01c806383d8240711610125578063c4e41b22116100ad578063ee810d481161007c578063ee810d4814610460578063f1850af814610473578063f2fde38b1461047b578063f76b44311461048e578063ff74927b146104a157600080fd5b8063c4e41b2214610412578063c87b56dd1461041a578063d2c968af1461042d578063e985e9c51461044d57600080fd5b806398d77dc0116100f457806398d77dc0146103c9578063a22cb465146103dc578063b33712c5146103ef578063b88d4fde146103f7578063bdc32be01461040a57600080fd5b806383d8240714610386578063862b092b146103a8578063893d20e8146103b057806395d89b41146103c157600080fd5b806323b872dd116101a8578063439766ce11610177578063439766ce146103485780635c2dc4f0146103505780635c975abb146103585780636352211e1461036057806370a082311461037357600080fd5b806323b872dd146102fc5780632f745c591461030f5780633bb3a24d1461032257806342842e0e1461033557600080fd5b8063081812fc116101e4578063081812fc14610296578063095ea7b3146102d75780631036e0a8146102ec5780632004ffd9146102f457600080fd5b806301ffc9a71461021657806302ccc2411461023e578063047087cc1461026b57806306fdde0314610281575b600080fd5b610229610224366004611f13565b6104b4565b60405190151581526020015b60405180910390f35b61022961024c366004611f13565b6001600160e01b03191660009081526020819052604090205460ff1690565b610273610506565b604051908152602001610235565b610289610515565b6040516102359190611f88565b6102bf6102a4366004611f9b565b6000908152600b60205260409020546001600160a01b031690565b6040516001600160a01b039091168152602001610235565b6102ea6102e5366004611fd0565b6105a7565b005b6102ea6106cf565b6102ea61071e565b6102ea61030a366004611ffa565b6107a6565b61027361031d366004611fd0565b6107dc565b610289610330366004611f9b565b610862565b6102ea610343366004611ffa565b61095e565b6102ea610979565b6102ea610a2b565b6102ea610a7a565b6102bf61036e366004611f9b565b610ac4565b610273610381366004612036565b610b3b565b610399610394366004611f9b565b610bc2565b60405161023593929190612051565b610289610d0d565b6001546001600160a01b03166102bf565b610289610d1c565b6102296103d7366004612084565b610d2b565b6102ea6103ea3660046120c5565b610d3e565b6102ea610dc1565b6102ea6104053660046121b1565b610e6e565b610289610ea6565b610273610eb5565b610289610428366004611f9b565b610ec0565b61027361043b366004611f9b565b60186020526000908152604090205481565b61022961045b366004612084565b610fa7565b6102ea61046e36600461227d565b610fd5565b6102896110fd565b6102ea610489366004612036565b61110c565b6102ea61049c36600461227d565b611154565b6102896104af36600461233d565b611425565b60006001600160e01b031982166380ac58cd60e01b14806104e557506001600160e01b03198216635b5e139f60e01b145b8061050057506301ffc9a760e01b6001600160e01b03198316145b92915050565b6000610510610eb5565b905090565b606060038054610524906123a1565b80601f0160208091040260200160405190810160405280929190818152602001828054610550906123a1565b801561059d5780601f106105725761010080835404028352916020019161059d565b820191906000526020600020905b81548152906001019060200180831161058057829003601f168201915b5050505050905090565b6000818152600a60205260409020546001600160a01b03838116911614156106165760405162461bcd60e51b815260206004820152601c60248201527f6d757374206e6f7420626520617070726f76656420616464726573730000000060448201526064015b60405180910390fd5b6002546001600160a01b031633148061063457506106343383610fa7565b6106765760405162461bcd60e51b815260206004820152601360248201527218d85b1b195c881b9bdd08185c1c1c9bdd9959606a1b604482015260640161060d565b6000818152600b602052604080822080546001600160a01b0319166001600160a01b0386169081179091559051839233917f8c5be1e5ebec7d5bd14f71427d1e84f3dd0314c0f7b2291e5b200ac8c7c3b9259190a45050565b6001546001600160a01b0316331461071c5760405162461bcd60e51b815260206004820152601060248201526f31b0b63632b9103737ba1037bbb732b960811b604482015260640161060d565b565b6000610728610eb5565b905061073333611578565b336000908152600d602090815260408083208054858552600e84528285208190556001808201835591855283852001859055600f80548686526010909452918420839055820181559091527f8d1108e10bcb7c27dddfc02ed9d693a074039d026cf4ea4240b40f7d581ac8020155565b50565b6107b0338261162a565b6107cc5760405162461bcd60e51b815260040161060d906123dc565b6107d7838383611701565b505050565b60006107e783610b3b565b82106108255760405162461bcd60e51b815260206004820152600d60248201526c0d2dcecc2d8d2c840d2dcc8caf609b1b604482015260640161060d565b6001600160a01b0383166000908152600d6020526040902080548390811061084f5761084f61242d565b9060005260206000200154905092915050565b6000818152600560205260409020546060906001600160a01b03166108c05760405162461bcd60e51b81526020600482015260146024820152731d1bdad95b88191bd95cc81b9bdd08195e1a5cdd60621b604482015260640161060d565b600082815260146020526040902080546108d9906123a1565b80601f0160208091040260200160405190810160405280929190818152602001828054610905906123a1565b80156109525780601f1061092757610100808354040283529160200191610952565b820191906000526020600020905b81548152906001019060200180831161093557829003601f168201915b50505050509050919050565b6107d783838360405180602001604052806000815250610e6e565b6109816106cf565b600154600160a01b900460ff16156109d15760405162461bcd60e51b81526020600482015260136024820152726e6f7420696e2070617573656420737461746560681b604482015260640161060d565b6001805460ff60a01b1916600160a01b90811791829055604080513381529190920460ff16151560208201527f9885b484a3068de5c38fb9073ed8489371efc9514b9a174a9cd1df5326d2e45491015b60405180910390a1565b600154600160a01b900460ff161561071c5760405162461bcd60e51b81526020600482015260126024820152711b5d5cdd081b9bdd081899481c185d5cd95960721b604482015260640161060d565b600154600160a01b900460ff1661071c5760405162461bcd60e51b815260206004820152600e60248201526d1b5d5cdd081899481c185d5cd95960921b604482015260640161060d565b6000818152600560205260408120546001600160a01b0316806105005760405162461bcd60e51b815260206004820152602960248201527f4552433732313a206f776e657220717565727920666f72206e6f6e657869737460448201526832b73a103a37b5b2b760b91b606482015260840161060d565b60006001600160a01b038216610ba65760405162461bcd60e51b815260206004820152602a60248201527f4552433732313a2062616c616e636520717565727920666f7220746865207a65604482015269726f206164647265737360b01b606482015260840161060d565b506001600160a01b031660009081526006602052604090205490565b600081815260186020908152604080832054808452601790925282205482916060918514610c265760405162461bcd60e51b81526020600482015260116024820152703737b716b2bc34b9ba32b73a1039b7b63760791b604482015260640161060d565b600081815260176020526040812060010154600160a01b900460ff166002811115610c5357610c53612443565b905080610c84576040518060400160405280600a815260200169155b985cdcda59db995960b21b8152509250610ce0565b8060011415610cb5576040518060400160405280600881526020016715995c9a599a595960c21b8152509250610ce0565b8060021415610ce05760405180604001604052806006815260200165135a5b9d195960d21b81525092505b506000908152601760205260409020805460019091015490956001600160a01b0390911694509092509050565b606060118054610524906123a1565b606060048054610524906123a1565b6000610d378383610fa7565b9392505050565b6001600160a01b038216331415610d5457600080fd5b336000818152600c602090815260408083206001600160a01b03871680855290835292819020805460ff191686151590811790915590519081529192917f17307eab39ab6107e8899845ad3d59bd9653f200f220920489ca2b5937696c3191015b60405180910390a35050565b610dc96106cf565b60018054600160a01b900460ff16151514610e1e5760405162461bcd60e51b81526020600482015260156024820152746e6f7420696e20756e70617573656420737461746560581b604482015260640161060d565b6001805460ff60a01b19169081905560408051338152600160a01b90920460ff16151560208301527fd0c0d0bdd7ffcf7b8e5922aa102f0dfc3e6cd7378f774bd623a7348b13c862899101610a21565b610e78338361162a565b610e945760405162461bcd60e51b815260040161060d906123dc565b610ea0848484846118a1565b50505050565b606060138054610524906123a1565b600061051060095490565b6000818152600560205260409020546060906001600160a01b0316610f3f5760405162461bcd60e51b815260206004820152602f60248201527f4552433732314d657461646174613a2055524920717565727920666f72206e6f60448201526e3732bc34b9ba32b73a103a37b5b2b760891b606482015260840161060d565b6000610f5660408051602081019091526000815290565b90506000815111610f765760405180602001604052806000815250610d37565b80610f80846118d4565b604051602001610f91929190612459565b6040516020818303038152906040529392505050565b6001600160a01b039182166000908152600c6020908152604080832093909416825291909152205460ff1690565b610fe184848484611154565b6000610fec336119d2565b90506001600082815260176020526040902060010154600160a01b900460ff16600281111561101d5761101d612443565b146110625760405162461bcd60e51b81526020600482015260156024820152746e6f7420696e20766572696669656420737461746560581b604482015260640161060d565b600081815260176020526040902060018101805460ff60a01b1916600160a11b1790555461108e611a26565b506000828152601760205260409020600101548290339083907f385bb21f773e06cde6586f4d7609ff929603a33217bb9e83ec35ccdcea313b2290600160a01b900460ff1660028111156110e4576110e4612443565b60405190815260200160405180910390a4505050505050565b606060128054610524906123a1565b6111146106cf565b506001546040516001600160a01b0390911690819033907fdb6d05f3295cede580affa301a1eb5297528f3b3f6a56b075887ce6f61c45f2190600090a350565b61115c6106cf565b6015546040516301887a7b60e61b81526001600160a01b039091169063621e9ec0906111929087908790879087906004016124ab565b6020604051808303816000875af11580156111b1573d6000803e3d6000fd5b505050506040513d601f19601f820116820180604052508101906111d59190612509565b6112185760405162461bcd60e51b815260206004820152601460248201527334b73b30b634b2103b32b934b334b1b0ba34b7b760611b604482015260640161060d565b6000611223336119d2565b6000818152601760205260409020600101549091506001600160a01b03161561127f5760405162461bcd60e51b815260206004820152600e60248201526d185b1c9958591e481b5a5b9d195960921b604482015260640161060d565b60008082815260176020526040902060010154600160a01b900460ff1660028111156112ad576112ad612443565b146112fa5760405162461bcd60e51b815260206004820152601760248201527f6e6f7420696e20756e61737367696e6564207374617465000000000000000000604482015260640161060d565b600061130560165490565b9050611315601680546001019055565b6040805160808101825282815233602082015290810160018152602090810184905260008481526017825260409081902083518155918301516001830180546001600160a01b039092166001600160a01b0319831681178255928501519290916001600160a81b03191617600160a01b83600281111561139757611397612443565b02179055506060919091015160029182015560008281526018602090815260408083208690558583526017909152902060010154339183917fdf9403367052ae45e0933863339b7fff856244e64e4ffc6a144318b21bc90e5b91600160a01b90910460ff169081111561140c5761140c612443565b60405190815260200160405180910390a3505050505050565b805182516060918491849160009161143d919061253c565b67ffffffffffffffff811115611455576114556120fc565b6040519080825280601f01601f19166020018201604052801561147f576020820181803683370190505b509050806000805b85518110156114f7578581815181106114a2576114a261242d565b01602001516001600160f81b03191683836114bc81612554565b9450815181106114ce576114ce61242d565b60200101906001600160f81b031916908160001a905350806114ef81612554565b915050611487565b5060005b845181101561156b578481815181106115165761151661242d565b01602001516001600160f81b031916838361153081612554565b9450815181106115425761154261242d565b60200101906001600160f81b031916908160001a9053508061156381612554565b9150506114fb565b5090979650505050505050565b6001600160a01b0381166115c75760405162461bcd60e51b815260206004820152601660248201527563616e6e6f74206265207a65726f206164647265737360501b604482015260640161060d565b60006115d260095490565b90506115e2600980546001019055565b6115ec8282611a8a565b6040518181526001600160a01b038316906000907f0a85107a334eae0d22d21cdf13af0f8e8125039ec60baaa843d2c4c5b068017490602001610db5565b6000818152600560205260408120546001600160a01b03166116a35760405162461bcd60e51b815260206004820152602c60248201527f4552433732313a206f70657261746f7220717565727920666f72206e6f6e657860448201526b34b9ba32b73a103a37b5b2b760a11b606482015260840161060d565b60006116ae83610ac4565b9050806001600160a01b0316846001600160a01b031614806116e957506000838152600b60205260409020546001600160a01b038581169116145b806116f957506116f98185610fa7565b949350505050565b826001600160a01b031661171482610ac4565b6001600160a01b03161461177c5760405162461bcd60e51b815260206004820152602960248201527f4552433732313a207472616e73666572206f6620746f6b656e2074686174206960448201526839903737ba1037bbb760b91b606482015260840161060d565b6001600160a01b0382166117de5760405162461bcd60e51b8152602060048201526024808201527f4552433732313a207472616e7366657220746f20746865207a65726f206164646044820152637265737360e01b606482015260840161060d565b6117e9600082611aa8565b6001600160a01b038316600090815260066020526040812080546001929061181290849061256f565b90915550506001600160a01b038216600090815260066020526040812080546001929061184090849061253c565b909155505060008181526005602052604080822080546001600160a01b0319166001600160a01b0386811691821790925591518493918716917fddf252ad1be2c89b69c2b068fc378daa952ba7f163c4a11628f55a4df523b3ef91a4505050565b6118ac848484611701565b6118b884848484611b16565b610ea05760405162461bcd60e51b815260040161060d90612586565b6060816118f85750506040805180820190915260018152600360fc1b602082015290565b8160005b8115611922578061190c81612554565b915061191b9050600a836125ee565b91506118fc565b60008167ffffffffffffffff81111561193d5761193d6120fc565b6040519080825280601f01601f191660200182016040528015611967576020820181803683370190505b5090505b84156116f95761197c60018361256f565b9150611989600a86612602565b61199490603061253c565b60f81b8183815181106119a9576119a961242d565b60200101906001600160f81b031916908160001a9053506119cb600a866125ee565b945061196b565b6000806119dd610eb5565b905060008184604051602001611a069291909182526001600160a01b0316602082015260400190565b60408051601f198184030181529190528051602090910120949350505050565b6000611a306106cf565b6000611a3a610eb5565b9050611a4461071e565b60405181815233907ff63a93365d60efe8aa58f99ad14d3d0689101e5ed3937e83089863d1812f4b649060200160405180910390a2611a8281611c14565b600191505090565b611aa4828260405180602001604052806000815250611cef565b5050565b600081815260076020526040902080546001600160a01b0319166001600160a01b0384169081179091558190611add82610ac4565b6001600160a01b03167f8c5be1e5ebec7d5bd14f71427d1e84f3dd0314c0f7b2291e5b200ac8c7c3b92560405160405180910390a45050565b60006001600160a01b0384163b15611c0957604051630a85bd0160e11b81526001600160a01b0385169063150b7a0290611b5a903390899088908890600401612616565b6020604051808303816000875af1925050508015611b95575060408051601f3d908101601f19168201909252611b9291810190612653565b60015b611bef573d808015611bc3576040519150601f19603f3d011682016040523d82523d6000602084013e611bc8565b606091505b508051611be75760405162461bcd60e51b815260040161060d90612586565b805181602001fd5b6001600160e01b031916630a85bd0160e11b1490506116f9565b506001949350505050565b6000818152600560205260409020546001600160a01b0316611c3557600080fd5b611ccc60138054611c45906123a1565b80601f0160208091040260200160405190810160405280929190818152602001828054611c71906123a1565b8015611cbe5780601f10611c9357610100808354040283529160200191611cbe565b820191906000526020600020905b815481529060010190602001808311611ca157829003601f168201915b50505050506104af836118d4565b60008281526014602090815260409091208251611aa49391929190910190611e64565b611cf98383611d22565b611d066000848484611b16565b6107d75760405162461bcd60e51b815260040161060d90612586565b6001600160a01b038216611d785760405162461bcd60e51b815260206004820181905260248201527f4552433732313a206d696e7420746f20746865207a65726f2061646472657373604482015260640161060d565b6000818152600560205260409020546001600160a01b031615611ddd5760405162461bcd60e51b815260206004820152601c60248201527f4552433732313a20746f6b656e20616c7265616479206d696e74656400000000604482015260640161060d565b6001600160a01b0382166000908152600660205260408120805460019290611e0690849061253c565b909155505060008181526005602052604080822080546001600160a01b0319166001600160a01b03861690811790915590518392907fddf252ad1be2c89b69c2b068fc378daa952ba7f163c4a11628f55a4df523b3ef908290a45050565b828054611e70906123a1565b90600052602060002090601f016020900481019282611e925760008555611ed8565b82601f10611eab57805160ff1916838001178555611ed8565b82800160010185558215611ed8579182015b82811115611ed8578251825591602001919060010190611ebd565b50611ee4929150611ee8565b5090565b5b80821115611ee45760008155600101611ee9565b6001600160e01b0319811681146107a357600080fd5b600060208284031215611f2557600080fd5b8135610d3781611efd565b60005b83811015611f4b578181015183820152602001611f33565b83811115610ea05750506000910152565b60008151808452611f74816020860160208601611f30565b601f01601f19169290920160200192915050565b602081526000610d376020830184611f5c565b600060208284031215611fad57600080fd5b5035919050565b80356001600160a01b0381168114611fcb57600080fd5b919050565b60008060408385031215611fe357600080fd5b611fec83611fb4565b946020939093013593505050565b60008060006060848603121561200f57600080fd5b61201884611fb4565b925061202660208501611fb4565b9150604084013590509250925092565b60006020828403121561204857600080fd5b610d3782611fb4565b8381526001600160a01b038316602082015260606040820181905260009061207b90830184611f5c565b95945050505050565b6000806040838503121561209757600080fd5b6120a083611fb4565b91506120ae60208401611fb4565b90509250929050565b80151581146107a357600080fd5b600080604083850312156120d857600080fd5b6120e183611fb4565b915060208301356120f1816120b7565b809150509250929050565b634e487b7160e01b600052604160045260246000fd5b6040805190810167ffffffffffffffff81118282101715612135576121356120fc565b60405290565b600067ffffffffffffffff80841115612156576121566120fc565b604051601f8501601f19908116603f0116810190828211818310171561217e5761217e6120fc565b8160405280935085815286868601111561219757600080fd5b858560208301376000602087830101525050509392505050565b600080600080608085870312156121c757600080fd5b6121d085611fb4565b93506121de60208601611fb4565b925060408501359150606085013567ffffffffffffffff81111561220157600080fd5b8501601f8101871361221257600080fd5b6122218782356020840161213b565b91505092959194509250565b600082601f83011261223e57600080fd5b612246612112565b80604084018581111561225857600080fd5b845b8181101561227257803584526020938401930161225a565b509095945050505050565b600080600080610140858703121561229457600080fd5b61229e868661222d565b9350604086605f8701126122b157600080fd5b6122b9612112565b8060c08801898111156122cb57600080fd5b8389015b818110156122f0576122e18b8261222d565b845260209093019284016122cf565b508196506122fe8a8261222d565b95505050505061231286610100870161222d565b905092959194509250565b600082601f83011261232e57600080fd5b610d378383356020850161213b565b6000806040838503121561235057600080fd5b823567ffffffffffffffff8082111561236857600080fd5b6123748683870161231d565b9350602085013591508082111561238a57600080fd5b506123978582860161231d565b9150509250929050565b600181811c908216806123b557607f821691505b602082108114156123d657634e487b7160e01b600052602260045260246000fd5b50919050565b60208082526031908201527f4552433732313a207472616e736665722063616c6c6572206973206e6f74206f6040820152701ddb995c881b9bdc88185c1c1c9bdd9959607a1b606082015260800190565b634e487b7160e01b600052603260045260246000fd5b634e487b7160e01b600052602160045260246000fd5b6000835161246b818460208801611f30565b83519083019061247f818360208801611f30565b01949350505050565b8060005b6002811015610ea057815184526020938401939091019060010161248c565b61014081016124ba8287612488565b60408083018660005b60028110156124ea576124d7838351612488565b91830191602091909101906001016124c3565b505050506124fb60c0830185612488565b61207b610100830184612488565b60006020828403121561251b57600080fd5b8151610d37816120b7565b634e487b7160e01b600052601160045260246000fd5b6000821982111561254f5761254f612526565b500190565b600060001982141561256857612568612526565b5060010190565b60008282101561258157612581612526565b500390565b60208082526032908201527f4552433732313a207472616e7366657220746f206e6f6e20455243373231526560408201527131b2b4bb32b91034b6b83632b6b2b73a32b960711b606082015260800190565b634e487b7160e01b600052601260045260246000fd5b6000826125fd576125fd6125d8565b500490565b600082612611576126116125d8565b500690565b6001600160a01b038581168252841660208201526040810183905260806060820181905260009061264990830184611f5c565b9695505050505050565b60006020828403121561266557600080fd5b8151610d3781611efd56fea2646970667358221220fce2f5710549df9cb9b5cfce44908a9438ebc4e0f3f048c0b721db73dd4ac72d64736f6c634300080a003368747470733a2f2f73332d75732d776573742d322e616d617a6f6e6177732e636f6d2f756461636974792d626c6f636b636861696e2f63617073746f6e652f",
  "immutableReferences": {},
  "source": "// SPDX-License-Identifier: MIT\n\npragma solidity >=0.5.0 <0.9.0;\nimport '@openzeppelin/contracts/utils/Counters.sol';\nimport './RealEstateToken.sol';\nimport './Verifier.sol';\n\n\n\n\n\ncontract SolnSquareVerifier is RealEstateToken {\n  Verifier verifier;\n  using Counters for Counters.Counter;\n  \n  constructor(address _squareVerifierAddress) {\n    verifier = Verifier(_squareVerifierAddress);\n    \n  }\n\n  enum Status { Unassgined, Verified, Minted}\n\n  struct Solution {\n    uint256 index;\n    address minter;\n    Status status;\n    bytes32 mintHash;\n  }\n\n  \n\n  Counters.Counter private solutionsCounter;\n\n  mapping(bytes32 => Solution) solutions;\n  mapping(uint256 => bytes32) public tokenIdToKey;\n  \n\n  event LogSolutionAdded(uint256 indexed index, address indexed minter, uint256 status);\n  event LogMintStatus(uint256 indexed index, address indexed minter, bytes32 indexed mintHash, uint256 status);\n\n  function addSolution(uint[2] memory _a, uint[2][2] memory _b, uint[2] memory _c, uint[2] memory _inputs) public isOwner {\n    require(verifier.verifyTx( _a, _b, _c, _inputs), 'invalid verification');\n    bytes32 mintKey = getMintKey(msg.sender);\n\n    require(solutions[mintKey].minter == address(0), 'already minted');\n    require(solutions[mintKey].status == Status.Unassgined, 'not in unassgined state');\n    uint256 tokenId = solutionsCounter.current();\n    solutionsCounter.increment();\n\n    solutions[mintKey] = Solution({\n      index: tokenId,\n      minter: msg.sender,\n      status: Status.Verified, \n      mintHash: mintKey\n    });\n  \n    tokenIdToKey[tokenId] = mintKey;\n\n    emit LogSolutionAdded(tokenId, msg.sender, uint256(solutions[mintKey].status));\n  }\n\n\n  function mintNFT(uint[2] memory _a, uint[2][2] memory _b, uint[2] memory _c, uint[2] memory _inputs) public {\n    addSolution(_a, _b, _c, _inputs);\n    bytes32 key = getMintKey(msg.sender);\n    require(solutions[key].status == Status.Verified, 'not in verified state');\n    solutions[key].status = Status.Minted;\n    uint256 tokenId = solutions[key].index;\n    mint();\n    emit LogMintStatus(tokenId, msg.sender, key, uint256(solutions[key].status));\n    // emit LogMintStatus(tokenId, msg.sender, uint256(solutions[mintKey].status));\n  }\n\n\n  function getMintKey(address _account) private view returns(bytes32) {\n    uint256 index = getTotalSupply();\n    bytes32 mintKey = keccak256(abi.encode(index, _account));\n    return mintKey;\n  }\n\n\n\n  function getSolutionDetails(uint256 _tokenId) public view returns(uint256 index, address minter, string memory status) {\n    bytes32 key = tokenIdToKey[_tokenId];\n    require(_tokenId == solutions[key].index, 'non-existent soln');\n\n    uint256 state = uint256(solutions[key].status);\n    if(state == 0) {\n      status =  'Unassigned';\n    \n    } else if(state == 1) {\n      status = 'Verified';\n    } else if(state == 2) {\n      status = 'Minted';\n    }\n\n    index = solutions[key].index;\n    minter = solutions[key].minter;\n\n   \n\n  }\n\n\n\n}\n\n",
  "sourcePath": "/Users/dav/Desktop/capstone-final/real-estate-marketplace/contracts/SolnSquareVerifier.sol",
  "compiler": {
    "name": "solc",
    "version": "0.8.10+commit.fc410830.Emscripten.clang"
  },
  "schemaVersion": "3.4.3",
  "updatedAt": "2021-12-20T09:56:13.812Z",
  "networkType": "ethereum",
  "devdoc": {
    "kind": "dev",
    "methods": {
      "approve(address,uint256)": {
        "details": "approve another address to transfer the given tokenId"
      },
      "balanceOf(address)": {
        "details": "See {IERC721-balanceOf}."
      },
      "checkSupportInterface(bytes4)": {
        "details": "implement supportsInterface(bytes4) using a lookup table"
      },
      "isApprovedForAll(address,address)": {
        "details": "Tells whether an operator is approved by a given owner",
        "params": {
          "_operator": "operator address which you want to query the approval of",
          "_owner": "owner address which you want to query the approval of"
        },
        "returns": {
          "_0": "bool whether the given operator is approved by the given owner"
        }
      },
      "mintToken()": {
        "details": "Internal function to mint a new token Reverts if the given token ID already exists"
      },
      "name()": {
        "details": "See {IERC721Metadata-name}."
      },
      "ownerOf(uint256)": {
        "details": "See {IERC721-ownerOf}."
      },
      "safeTransferFrom(address,address,uint256)": {
        "details": "See {IERC721-safeTransferFrom}."
      },
      "safeTransferFrom(address,address,uint256,bytes)": {
        "details": "See {IERC721-safeTransferFrom}."
      },
      "setApprovalForAll(address,bool)": {
        "details": "Sets or unsets the approval of a given operator An operator is allowed to transfer all tokens of the sender on their behalf",
        "params": {
          "_to": "operator address to set the approval"
        }
      },
      "supportsInterface(bytes4)": {
        "details": "See {IERC165-supportsInterface}."
      },
      "symbol()": {
        "details": "See {IERC721Metadata-symbol}."
      },
      "tokenOfOwnerByIndex(address,uint256)": {
        "details": "Gets the token ID at a given index of the tokens list of the requested owner",
        "params": {
          "_index": "uint256 representing the index to be accessed of the requested tokens list",
          "_owner": "address owning the tokens list to be accessed"
        },
        "returns": {
          "_0": "uint256 token ID at the given index of the tokens list owned by the requested address"
        }
      },
      "tokenURI(uint256)": {
        "details": "See {IERC721Metadata-tokenURI}."
      },
      "transferFrom(address,address,uint256)": {
        "details": "See {IERC721-transferFrom}."
      }
    },
    "version": 1
  },
  "userdoc": {
    "kind": "user",
    "methods": {},
    "version": 1
  }
}